:1000000000000220D5650000BD630000CD63000044
:100010002D6400003D6400004D64000000000000FD
:100020000000000000000000000000005D6400000F
:100030006D64000000000000010100005165000037
:100040007D6400007D6400007D6400007D6400002C
:100050007D6400007D6400007D6400007D6400001C
:100060007D6400007D6400007D6400007D6400000C
:100070007D6400007D6400007D6400007D640000FC
:100080007D6400007D6400007D6400007D640000EC
:100090007D6400007D6400007D6400007D640000DC
:1000A0007D6400007D6400007D6400007D640000CC
:1000B0007D6400007D6400007D6400007D640000BC
:1000C0007D6400007D6400007D6400007D640000AC
:1000D0007D6400007D6400007D6400007D6400009C
:1000E0007D6400007D6400007D6400007D6400008C
:1000F0007D6400007D6400007D6400007D6400007C
:1001000027484FF00101016026480168002902D10B
:10011000DFF894D011E02DE9F00F00B50A6912F470
:10012000805205D01EF0100302D12DED108A08B4C4
:10013000C1F818D04FF0000202601C4D1C4E4FF069
:10014000200282F31188D5F80080B8F1000F0BD19E
:10015000D6F800C0BCF1000F08BF06F0ADF84FF0B4
:10016000000282F31188EAE7C0F80080D8F818D0BE
:10017000D8F8100010F4805006D0009B13F0100344
:1001800002D108BCBDEC108A5DF804EBBDE8F00FAD
:1001900003484FF00001016081F3118870470000AF
:1001A000E0130020E4130020F0240020E8130020D6
:1001B000B4250020844641EA000313F003036DD107
:1001C000403A41D351F8043B40F8043B51F8043B1A
:1001D00040F8043B51F8043B40F8043B51F8043B21
:1001E00040F8043B51F8043B40F8043B51F8043B11
:1001F00040F8043B51F8043B40F8043B51F8043B01
:1002000040F8043B51F8043B40F8043B51F8043BF0
:1002100040F8043B51F8043B40F8043B51F8043BE0
:1002200040F8043B51F8043B40F8043B51F8043BD0
:1002300040F8043B51F8043B40F8043B51F8043BC0
:1002400040F8043B403ABDD2303211D351F8043B60
:1002500040F8043B51F8043B40F8043B51F8043BA0
:1002600040F8043B51F8043B40F8043B103AEDD20F
:100270000C3205D351F8043B40F8043B043AF9D260
:10028000043208D0D2071CBF11F8013B00F8013B33
:1002900001D30B8803806046704700BF082A13D340
:1002A0008B078DD010F003038AD0C3F10403D21A58
:1002B000DB071CBF11F8013B00F8013B80D331F88C
:1002C000023B20F8023B7BE7043AD9D3013A11F80C
:1002D000013B00F8013BF9D20B7803704B78437077
:1002E0008B78837060467047830730B548D0541EC2
:1002F000002A3FD0CAB2034601E0013C3AD303F8DA
:10030000012B9D07F9D1032C2DD9CDB245EA052546
:100310000F2C45EA054536D9A4F1100222F00F0C46
:1003200003F1200EE6444FEA121C03F1100242E9E9
:10033000045542E9025510327245F8D10CF1010220
:1003400014F00C0F03EB021204F00F0C13D0ACF1FD
:10035000040323F003030433134442F8045B934281
:10036000FBD10CF003042CB1CAB21C4403F8012BDE
:100370009C42FBD130BD64461346002CF4D1F9E712
:1003800003461446BFE71A46A446E0E780B500AF2F
:1003900005F022FE00BF80BD80B584B000AF78605C
:1003A0007B68DBB2FB7205F0C9FE0346FB60FB7A9B
:1003B0000A2B03D10121094805F0E4FD07F10B03E5
:1003C0000121184605F0DEFDFB68184605F09CFE8D
:1003D000002318461037BD4680BD00BF456B0000A6
:1003E00080B584B000AF78607B68FB6005F0A6FE46
:1003F0000346BB6006E0FB685A1CFA601B7818468F
:10040000FFF7CAFFFB681B78002BF4D1BB681846C6
:1004100005F07AFE002318461037BD4680BD000067
:1004200080B487B000AFF860B9601346FB71FB7908
:100430009B10DBB203F01003FB75FB7903F03F0365
:10044000FB7114E0FA79BB68B3FBF2F101FB02F235
:100450009A1AFB7D1344FA68013AFA600E4AD25C9C
:10046000FB681A70FB79BA68B2FBF3F3BB60FB79E7
:10047000BA689A42E6D2FA7DBB681344FA68013A38
:10048000FA60054AD25CFB681A70FB6818461C3794
:10049000BD465DF8047B7047486B000080B590B0A6
:1004A00000AFF860B9607A603B6000233B630FE304
:1004B00097F82730252B07D03B6B002B40F00883A3
:1004C0007B68013B3B6303E33B6B002B09D07A68FD
:1004D0003B6BD31A591EFB68BA68386B98470023E8
:1004E0003B63002387F825307B685A1C7A601B78B1
:1004F00087F8273097F82730203B102B48D801A2E7
:1005000052F823F0650500009105000091050000F8
:1005100073050000910500009105000091050000A1
:100520009105000091050000910500009105000073
:1005300057050000910500004905000091050000E5
:10054000910500008105000097F8253043F0010374
:1005500087F825301BE097F8253043F0020387F831
:10056000253014E097F8253043F0040387F8253050
:100570000DE097F8253043F0080387F8253006E0B2
:1005800097F8253043F0100387F8253000BFABE71C
:1005900000BF97F827302A2B19D13B681A1D3A6003
:1005A0001B687B87B7F93A30002B09DA7B8F5B42F7
:1005B0009BB27B8797F8253043F0010387F82530FD
:1005C0007B685A1C7A601B7887F827301EE000236E
:1005D0007B8713E07B8F1A46920013445B009AB22C
:1005E00097F827309BB213449BB2303B9BB27B877A
:1005F0007B685A1C7A601B7887F8273097F8273079
:100600002F2B03D997F82730392BE3D94FF6FF73F7
:100610003B8797F827302E2B40D17B685A1C7A6095
:100620001B7887F8273097F827302A2B11D13B68A1
:100630001A1D3A601B683B87B7F93830002B01DA86
:1006400000233B877B685A1C7A601B7887F8273029
:100650001EE000233B8713E03B8F1A4692001344B1
:100660005B009AB297F827309BB213449BB2303BA1
:100670009BB23B877B685A1C7A601B7887F82730CF
:1006800097F827302F2B03D997F82730392BE3D948
:1006900097F8253023F0100387F82530002387F8DA
:1006A000243097F82730682B03D097F827306C2B2D
:1006B00009D197F8273087F824307B685A1C7A6074
:1006C0001B7887F827300A2387F826300023FB742D
:1006D00007F114030E33BB6297F82730002B00F0AC
:1006E0006B81002BC0F26C81782B00F36981582B51
:1006F000C0F26681583B202B00F2628101A252F8C1
:1007000023F000BF89070000C1090000C1090000F3
:10071000C1090000C1090000C1090000C1090000B1
:10072000C1090000C1090000C1090000C1090000A1
:100730009B09000089070000C1090000C1090000F1
:10074000C1090000C109000089070000C1090000BB
:10075000C1090000C1090000C1090000C109000071
:100760008907000023090000C1090000C109000039
:1007700053090000C109000089070000C1090000F9
:10078000C10900008907000097F824306C2B05D1BF
:100790003B681A1D3A601B68FB6316E03B681A1D34
:1007A0003A601B68FB6397F82430682B0DD197F8EB
:1007B0002730692B03D097F82730642B02D1FB6BCD
:1007C0001BB201E0FB6B9BB2FB6397F82730583BF1
:1007D000202B00F2938001A252F823F0A30800001E
:1007E000FD080000FD080000FD080000FD080000F5
:1007F000FD080000FD080000FD080000FD080000E5
:10080000FD080000FD080000FD0800006108000070
:10081000FD080000FD080000FD080000FD080000C4
:1008200061080000FD080000FD080000FD08000050
:10083000FD080000FD080000B7080000FD080000EA
:10084000FD080000FD080000FD080000FD08000094
:10085000FD080000FD080000FD080000AD080000D4
:10086000FB6B002B05DAFB6B5B42FB632D23FB74F8
:1008700010E097F8253003F00203002B02D02B2361
:10088000FB7407E097F8253003F00403002B32D007
:100890002023FB74B7F93A309BB2013B9BB27B87B4
:1008A0002CE097F82630403387F8263097F826302A
:1008B000083387F8263097F82630023B87F8263031
:1008C00097F8253003F00803002B16D0FB6B002BA4
:1008D00013D07A8F97F82630082B01D1012300E03E
:1008E0000223D31A9BB27B8797F8263063F07F03ED
:1008F00087F8263001E000BF00E000BFFB6B002B53
:1009000003D1B7F93830002B08D097F826301A46B3
:10091000F96BB86AFFF784FD034600E0BB6AFB622F
:1009200053E03B681A1D3A601B68FB63FB6B002BAE
:1009300006D0902387F826307B8F023B9BB27B87C3
:1009400097F826301A46F96BB86AFFF769FDF86226
:100950003BE03B681A1D3A601B68FB62FB6ABB62A6
:10096000B7F93830002B0BDA02E0BB6A0133BB6207
:10097000BB6A1B78002BF8D126E0BB6A0133BB624F
:100980003B8F013B9BB23B87B7F93830002B1BDB19
:10099000BB6A1B78002BF0D116E0BB6AFB623B6898
:1009A0001A1D3A601A68FB6A013BFB62D2B2FB6A0D
:1009B0001A7000233B8708E07B68013B7B6087E07F
:1009C0007B68013B3B6383E000BFBA6AFB6AD31AD2
:1009D000FB863A8FFB8ED31A9BB23B87B7F9383030
:1009E000002B04DDFA8E3B8F13449BB2FB867A8F7B
:1009F000FB8ED31A9BB27B8797F8253003F0110347
:100A0000002B0DD104E0FB68BA6801213D489847EE
:100A10007B8F013B9BB27B87B7F93A30002BF2DA30
:100A2000FB7C002B05D007F11300FB68BA6801219D
:100A3000984797F92630002B17DAFB68BA6801212E
:100A40003148984797F8263003F01003002B0CD05C
:100A500097F8263003F04003002B01D02B4800E02C
:100A60002B48FB68BA68012198473B8FFB86B7F992
:100A70003630002B0FDC97F8253003F01103102BD4
:100A800009D17B8FFB8600237B8704E0FB68BA6873
:100A900001211D489847FB8E013B9BB2FB86B7F9AD
:100AA0003630002BF2DABA6AFB6AD11AFB68BA68F0
:100AB000F86A984704E0FB68BA6801211148984732
:100AC0007B8F013B9BB27B87B7F93A30002BF2DA80
:100AD0007B685A1C7A601B7887F8273097F8273094
:100AE000002B7FF4E5AC3B6B002B07D07A683B6BA7
:100AF000D31A591EFB68BA68386B984700BF403755
:100B0000BD4680BDE4670000E8670000EC670000B8
:100B1000F067000080B584B000AFF860B9607A601B
:100B20007B68B3F900309AB2BB689BB213449BB2A6
:100B30001AB27B681A8006E0FB685A1CFA601B78C0
:100B40001846FFF729FCBB68013BBB60BB68002B64
:100B5000F2DA00BF00BF1037BD4680BD0FB480B5CC
:100B600082B000AF00237B8007F114037B60B91CC7
:100B70007B683A690548FFF791FCB7F902301846DF
:100B80000837BD46BDE8804004B07047150B000033
:100B900080B584B000AF786005F0D0FAF8607B686B
:100BA0001B685A1C7B681A607B681B68BB60F8680E
:100BB00005F0AAFABB6818461037BD4680BD80B55F
:100BC00084B000AF786005F0B9FAF8607B681B6804
:100BD000591E7A681160BB60F86805F095FABB6829
:100BE00018461037BD4680BD80B582B000AF786032
:100BF0007868FFF7CDFF0346002B07DD7B685B6855
:100C00004FF0FF320121184602F0F4FB00BF083715
:100C1000BD4680BD80B582B000AF78607868FFF7D0
:100C2000CEFF0346002B05DD7B685B68012118467B
:100C300002F008FB00BF0837BD4680BD80B58AB012
:100C400000AF786039600123FB6000233B61012322
:100C50007B6107F108037B62164B3B620023FB615B
:100C60000AE03A6A531C3B627B6A591C796212782B
:100C70001A70FB690133FB61FB69032BF1DD07F19E
:100C80000803184602F014FAB861BB69002B01DAB8
:100C9000BB690AE07B68BA695A607B684FF0FF3233
:100CA0001A607B683A689A60002318462837BD4668
:100CB00080BD00BFF467000080B582B000AF7860EF
:100CC0007B685B68002B04DD7B685B68184602F07C
:100CD00069FA7B6800225A6000BF0837BD4680BDB4
:100CE00080B584B000AF786005F028FAF8607B68C2
:100CF0001B685A1C7B681A60F86805F005FA00BF8B
:100D00001037BD4680BD80B584B000AF786005F077
:100D100015FAF8607B681B685A1E7B681A60F868D1
:100D200005F0F2F900BF1037BD4680BD80B586B032
:100D300000AF7860396001223B6802FA03F37B61FF
:100D400005F0FCF938617B681B687A691340FB6029
:100D50007B681A687B691A437B681A60386905F0FA
:100D6000D3F9FB6818461837BD4680BD80B584B0FE
:100D700000AF7860396005F0E1F9F8607B681A68C7
:100D800001213B6801FA03F3DB431A407B681A60D8
:100D9000F86805F0B9F900BF1037BD4680BD80B5D1
:100DA0008AB002AFF860B9607A600122BB6802FACB
:100DB00003F3BB61FB6804331846FFF791FFFB6840
:100DC000B9681846FFF7B2FF0346002B02D1002393
:100DD000FB6110E0FB68986807F114027B680093E0
:100DE00013462122B96901F0C3FBF861FB69002BAE
:100DF00000DBE4E700BFFB6804331846FFF783FF1E
:100E0000FB6918462037BD4680BD80B582B000AF73
:100E1000786039604FF0FF3239687868FFF7BFFFBC
:100E2000034618460837BD4680BD80B584B000AF84
:100E30007860396001223B6802FA03F3FB607B684B
:100E400039681846FFF792FF7B685B68002B07D074
:100E50007B689B68F968184601F0E8FA034600E0F1
:100E60000023BB60BB6818461037BD4680BD00003C
:100E700080B58AB000AF7860396009233B610023F8
:100E80007B6107F10C037B62174B3B620023FB6124
:100E90000AE03A6A531C3B627B6A591C79621278F9
:100EA0001A70FB690133FB61FB69032BF1DD07F16C
:100EB0000C03184601F00AFAB8617B68BA699A60B7
:100EC000BB69002B01DABB6909E07B6800225A602C
:100ED0007B6800221A607B683A68DA600023184653
:100EE0002837BD4680BD00BFFC67000080B584B0D8
:100EF00000AF78607B689B68002B02DC6FF010030A
:100F00000EE07B689B68184601F040FAF860FB68C9
:100F1000002B01DAFB6803E07B6800229A60002363
:100F200018461037BD4680BD80B582B000AF7860EE
:100F3000786801F0DDFD034618460837BD4680BDE0
:100F400080B582B000AF7860786801F027FE00BFFE
:100F50000837BD4680BDF0B484B000AFF860B9601A
:100F60007A60FC68BB68DDB27B68072B12DC03E0AB
:100F700023465C1C2A461A707B685A1E7A60002B36
:100F8000F6DCFB682EE07B68013B7B6023465C1C43
:100F90002A461A70234603F00303002BF3D126469A
:100FA0002A462B461B021A432B461B041A432B4688
:100FB0001B0642EA030405E033461E1D1C607B68E5
:100FC000043B7B607B68032BF6DC344606E023465B
:100FD0005C1C2A461A707B68013B7B607B68002B97
:100FE000F5D1FB6818461037BD46F0BC704790B489
:100FF00082B000AF78607C6800E001342378002B79
:10100000FBD17B68E31A18460837BD4690BC704791
:1010100090B482B000AF786039607C6823465C1C75
:101020003A6812781A703B685A1C3A601B78002B99
:10103000F4D17B6818460837BD4690BC704790B421
:1010400084B000AFF860B9607A60FC687B685A1EB3
:101050007A60002B01DCFB6815E023465C1CBA6853
:1010600012781A70BB685A1CBA601B78002BEDD13D
:1010700003E023465C1C00221A707B685A1E7A60CB
:10108000002BF6DCFB6818461037BD4690BC704755
:1010900090B482B000AF786039600DE07B685A1C74
:1010A0007A601B7819463B685A1C3A601B78CC1A48
:1010B000002C01D0234609E07B681B78002BEDD182
:1010C0007B681B781A463B681B78D31A184608378A
:1010D000BD4690BC704780B483B000AF78607B6839
:1010E0007A681A607B687A685A6000BF0C37BD4620
:1010F0005DF8047B704780B483B000AF78607B6894
:101100001B687A689A420CBF01230023DBB21846A1
:101110000C37BD465DF8047B704780B483B000AFE8
:10112000786039603B685A687B685A607B683A68C7
:101130001A603B685B687A681A603B687A685A6034
:1011400000BF0C37BD465DF8047B704780B483B0A8
:1011500000AF78607B681B687A689A4209D07B6828
:101160005B687A6812681A607B681B687A685268E4
:101170005A6000BF0C37BD465DF8047B704780B4F1
:1011800085B000AF78607B681B687A689A4201D1AD
:1011900000230BE07B681B68FB60FB681A687B68B8
:1011A0001A60FB681B687A685A60FB681846143737
:1011B000BD465DF8047B704780B584B000AF7860B1
:1011C000114B1B68FB6015E0FB68BB60BB681A7ABB
:1011D0007B681B789A420AD1BB6808337968184645
:1011E000FFF756FF0346002B01D1BB6807E0FB6801
:1011F0001B68FB60FB68044A9342E5D10023184654
:101200001037BD4680BD00BF6803002080B584B0A4
:1012100000AF78600F48FFF7B2FFF860FB68002B63
:1012200001D1002311E0FB680833092279681846D0
:10123000FFF705FFFB6840331846FFF74CFFFB68DC
:1012400005491846FFF769FFFB6818461037BD4689
:1012500080BD00BF700300206803002080B582B00D
:1012600000AF78607B681846FFF770FF7B68054920
:101270001846FFF752FF7B6800221A7200BF08373A
:10128000BD4680BD70030020B0B588B000AFF860E7
:10129000B9607A6001214F48FFF7B7FDF868FFF7A2
:1012A000A6FEB861BB69002B02D0BB69082B03DD29
:1012B0006FF010037B6184E0BB68002B27D0BB6814
:1012C000DB68002B03DBBB68DB68FF2B03DD6FF003
:1012D00010037B6175E0BB68DB68002B02DDBB6936
:1012E0000133BB61BB68DB680A2B02DDBB690133DC
:1012F000BB61BB68DB68642B02DDBB690133BB618A
:10130000BB69082B03DD6FF010037B6159E00021FE
:101310003048FFF77AFDF868FFF74EFFF861FB6988
:10132000002B11D1BB68002B03D16FF029037B6127
:1013300043E0F868FFF76AFFF861FB69002B03D10F
:101340006FF021037B6138E0BB68002B14D0FB6990
:10135000BA6803F1140415460FCD0FC40FCD0FC4A6
:1013600095E8070084E807007B68002B13D07B68B2
:10137000194A12681A600EE0FB6940331846FFF7FD
:10138000BAFE0346002B03D16FF040037B6114E0EB
:10139000F869FFF763FF00210E48FFF746FD0121C2
:1013A0000C48FFF742FDFB690C4A9B1ADB100C4A04
:1013B00002FB03F301331B0208E000210548FFF79D
:1013C00034FD01210348FFF730FD7B6918462037C3
:1013D000BD46B0BD140100202401002028010020DA
:1013E000398EE33880B485B000AF786039600DE0A5
:1013F000FB7A2F2B02D9FB7A392B0ED97B685A1C2A
:101400007A60FA7A1A703B6801333B603B681B785C
:10141000FB72FB7A002BEBD100E000BF7B6800225F
:101420001A700023FB60FB7A002B16D00CE0FA68E0
:1014300013469B0013445B001A46FB7A303B13446F
:10144000FB603B6801333B603B681B78FB72FB7AB7
:10145000002BECD1FB680133FB60FB6818461437A6
:10146000BD465DF8047B704780B582B000AF0823AD
:101470003B600F48FFF72FFE0E48FFF72CFE0E4B88
:101480007B600AE07B680B491846FFF746FE7B68E5
:1014900000221A727B6848337B603B685A1E3A60B0
:1014A000002BEFDC002318460837BD4680BD00BF87
:1014B00068030020700300202801002080B483B05E
:1014C00000AF00237B60054A7B6813607B68184689
:1014D0000C37BD465DF8047B704700BF2401002037
:1014E00080B582B000AF16491648FFF7C1FC78609E
:1014F0007B68002B15DBFFF7B7FF78607B68002B5C
:1015000011DB00F0DDFD78607B68002B0DDBFFF761
:10151000D5FF78607B68002B09DB00F07DFD0023A0
:1015200009E000BF04E000BF02E000BF00E000BF30
:1015300000F016F87B6818460837BD4680BD00BF2E
:10154000046800001401002080B483B000AF0023C1
:101550007B607B6818460C37BD465DF8047B70479E
:1015600080B582B000AF00F06DFDFFF7EDFF786051
:1015700000F0F0FD78600448FFF7B8FC7B6818467F
:101580000837BD4680BD00BF1401002080B483B081
:1015900000AF78607B687A681A607B687A685A6006
:1015A00000BF0C37BD465DF8047B704780B483B044
:1015B00000AF78607B681B687A689A420CBF012391
:1015C0000023DBB218460C37BD465DF8047B70473C
:1015D00080B483B000AF786039603B685A687B683C
:1015E0005A607B683A681A603B685B687A681A6080
:1015F0003B687A685A6000BF0C37BD465DF8047BD3
:10160000704780B483B000AF78607B681B687A68ED
:101610009A4209D07B685B687A6812681A607B68B6
:101620001B687A6852685A6000BF0C37BD465DF887
:10163000047B704780B485B000AF78607B681B681E
:101640007A689A4201D100230BE07B681B68FB603B
:10165000FB681A687B681A60FB681B687A685A60C6
:10166000FB6818461437BD465DF8047B70470000E0
:1016700080B500AF00210848FFF7C7FB074B1B6888
:10168000002B02D10548FFF781FF00210248FFF738
:10169000CCFB024B184680BD14010020C80A002074
:1016A00080B487B000AFF860B9607A60FB68002B47
:1016B00002DDFB68102B02DD6FF011031EE0FB68FA
:1016C00003F18063013B9B010F4A13447B617B69FB
:1016D0001B69002B02D16FF011030FE0BB68002BD8
:1016E00008D07B69DA69BB681340002B02D16FF028
:1016F0001A0303E07B687A691A60002318461C37D6
:10170000BD465DF8047B70477803002080B582B049
:1017100000AF786039607B681846FFF772FF7B681E
:1017200008331846FFF76DFF3B68002B04D07B6839
:1017300005491846FFF74CFF7B6800221A6100BF7D
:101740000837BD4680BD00BF7807002080B582B055
:1017500000AF78607B681846FFF753FF7B68054948
:101760001846FFF735FF7B6800229A6000BF0837F4
:10177000BD4680BDC00A002080B485B000AF78604F
:1017800039607B681B6CFB6009E0FB689B693A6809
:101790009A4201D1012308E0FB681B68FB607B686B
:1017A0004033FA689A42F0D1002318461437BD46F8
:1017B0005DF8047B7047000080B586B000AFF8602C
:1017C000B9607A603B601B48FFF734FF78617B6942
:1017D000002B01D1002328E07A69FB6840331946C9
:1017E0001046FFF7F5FE7B6908333A681146184644
:1017F000FFF7EEFE7B69FA685A617B69BA689A6105
:101800007B697A68DA617B6920331846FFF7BEFE90
:101810007B6900221A857B6900221A637B6900229A
:101820005A637B6900221A617B6918461837BD46E6
:1018300080BD00BF7807002080B48BB000AFF86097
:10184000B9607A607B6803F00303002B02D16FF06C
:10185000100372E000237B617B69BB61BB69FB61A4
:10186000FB693B62FB681B6C7B6234E07B6A3B611B
:10187000BB68002B08D03B699B69002B04D03B69F7
:101880009B69BA689A4223D13B69DB6903F0010383
:10189000002B02D03B6A01333B623B69DB6903F0FA
:1018A0000203002B02D0FB690133FB613B69DB695A
:1018B00003F4A063002B02D0BB690133BB613B6919
:1018C000DB6903F44073002B02D07B6901337B6139
:1018D0007B6A1B687B62FB6840337A6A9A42C5D197
:1018E0007B6803F4A063002B05D03B6A002B02DD6C
:1018F0006FF0400321E07B6803F44073002B05D0B8
:10190000FB69002B02DD6FF0400316E07B6803F0FB
:101910000103002B05D0BB69002B02DD6FF04003F3
:101920000BE07B6803F00203002B05D07B69002BE2
:1019300002DD6FF0400300E0002318462C37BD465F
:101940005DF8047B7047000080B58EB000AF786012
:10195000396007F10C0379681846FFF743FDF86218
:10196000FFF786FEB862BB6A002B03D16FF0180345
:101970003B63ABE000215848FFF747FA07F10C033F
:101980001846FFF719FC78627B6A002B04D07B6A4B
:101990001B6AFA6A9A4203DD6FF029033B6391E008
:1019A0003A68F96A786AFFF747FF38633B6B002BA8
:1019B000C0F287807B6A9B6A7B637B6A5B693B6260
:1019C000F96A786AFFF7D8FE0346002B07D07B6AD6
:1019D0009B6903F00103002B01D100237B63BB6AE9
:1019E0003A68F96A786AFFF7E7FEF861FB69002B4D
:1019F00003D16FF021033B6364E0384801F058FBEA
:101A0000B861BB69002B03DA6FF004033B6353E05A
:101A1000FB69BA69DA6300212F48FFF706FA7B6B8E
:101A2000002B2ED004F08AFB2D4B1B68B3F922202B
:101A300092B2013292B212B25A84002004F064FBD6
:101A40007B6A284A9B1ADB10274A02FB03F3013307
:101A50001A02FB6AD0187B6B3A6A39689847386378
:101A600004F06CFB1E4B1B68B3F9222092B2013AC2
:101A700092B212B25A84002004F046FB3B6B002B5A
:101A800010DB00211448FFF7C0F9FB6901221A613D
:101A900000211148FFF7C9F9FB69144A9B1A9B11F1
:101AA000013314E000BF00210B48FFF7AEF9FB69DA
:101AB000DB6B184601F076FB0121F869FFF726FE83
:101AC00000E000BF00210448FFF7AFF93B6B184668
:101AD0003837BD4680BD00BF14010020686B000090
:101AE000E413002028010020398EE3387803002019
:101AF00090B589B000AF786000217648FFF785F98E
:101B00007B685B69BB61BB699B6B7B61BB695B6B22
:101B10003B61BB695B69FB6002F08CF802467B6845
:101B20005A637B6800229A637B681B6B002B2EDD57
:101B30007B68DB6A103BBB6004F000FB664B1B68F4
:101B4000B3F9222092B2013292B212B25A8400202A
:101B500004F0DAFABB68D8687B68D96A7B681A6BCC
:101B60007C69FB68A04704F0E9FA5B4B1B68B3F99A
:101B7000222092B2013A92B212B25A84002004F0AA
:101B8000C3FA7B689B6B5A1C7B689A6342E07B6854
:101B90001B6AFB6139E0FB69BB60BB68DB68002B3B
:101BA0002FD0BA68137F43F01003137704F0C6FAFE
:101BB000494B1B68B3F9222092B2013292B212B2A1
:101BC0005A84002004F0A0FABB68D868BB6803F10F
:101BD00010017C69FB680122A04704F0AFFA3E4B7C
:101BE0001B68B3F9222092B2013A92B212B25A841F
:101BF000002004F089FA7B689B6B5A1C7B689A630F
:101C000000E000BFFB691B68FB617B682033FA6959
:101C10009A42C0D100212F48FFF707F97B689B6BE0
:101C2000002B07DD7B68DB6B4FF0FF32012118468C
:101C300001F0E0FB7B6800225A6300212548FFF792
:101C4000E4F837E07B681B6ABB60BA68137F43F037
:101C50001003137700211F48FFF7E7F804F06EFA2E
:101C60001D4B1B68B3F9222092B2013292B212B21C
:101C70005A84002004F048FABB6803F110003C6964
:101C8000FB684FF0FF320121A04704F057FA124BD6
:101C90001B68B3F9222092B2013A92B212B25A846E
:101CA000002004F031FA00210A48FFF7AEF8B868C6
:101CB000FFF74CFD7B6820331846FFF777FC03469F
:101CC000002BBFD000210348FFF7AFF800BF243737
:101CD000BD4690BD14010020E413002080B588B0FB
:101CE00000AF786039600023BB617868FFF700FFC0
:101CF00000213948FFF789F87B685B697B617B6865
:101D00009B693B617B69DB6AFB617B695B69FB60AB
:101D10007B69324A9B1ADB10314A02FB03F3013321
:101D20001B023A691344BB607B68DB6B184601F009
:101D300039FA00217868FFF7E9FC39697869FFF71B
:101D40001BFD0346002B0BD03B6823F001033B60D7
:101D50007B699B6903F00103002B01D10023FB6128
:101D600000211D48FFF761F8FB69002B21D004F02A
:101D7000E5F91C4B1B68B3F9222092B2013292B2F2
:101D800012B25A84002004F0BFF9FB69FA6839687E
:101D9000B8689847B86104F0D1F9124B1B68B3F9E1
:101DA000222092B2013A92B212B25A84002004F078
:101DB000ABF900210848FFF728F87B680A49184664
:101DC000FFF706FC00210448FFF72FF8BB6918460F
:101DD0002037BD4680BD00BF14010020280100202F
:101DE000398EE338E41300207807002080B584B0F2
:101DF00000AF78600B48FFF71DFCF860FB68002B14
:101E000001D100230AE0FA687B68203319461046A6
:101E1000FFF7DEFBFB687A689A60FB6818461037AC
:101E2000BD4680BDC00A002080B58CB000AFF86010
:101E3000B9607A603B6000216548FEF7E6FFBB6849
:101E400013F5803F06DCBB68B3F1004F02D00023DE
:101E5000FB6206E0FB6B012B01D1012300E00223B2
:101E6000FB6207F114031A46F96AF868FFF718FCD9
:101E7000B862BB6A002BC0F2A1807B695B697B62A0
:101E80007B6A1B6B3B627B6A5B69FB617B69184603
:101E9000FFF7ACFFB861BB69002B03D16FF02103E2
:101EA000BB628CE0BB6900221A61BB6900225A61E7
:101EB0007B6A484A9B1ADB10474A02FB03F3013353
:101EC0001A027B699B691A44BB699A61FB6B1B010F
:101ED0005BB21B1159B2BA69137F61F30303137725
:101EE000BA69137F6FF304131377BB69BA681A6278
:101EF000BB693A685A62BB697A689A62BB69002218
:101F0000DA62BB6900221A6301F094FE0246BB69E3
:101F1000DA6000212E48FEF788FF04F00FF92F4BFE
:101F20001B68B3F9222092B2013292B212B25A84E3
:101F3000002004F0E9F8BB6903F110003B6AFA697C
:101F4000B96B9847B86204F0F9F8244B1B68B3F9F1
:101F5000222092B2013A92B212B25A84002004F0C6
:101F6000D3F800211A48FEF750FFBB690022DA605F
:101F70007B695B6B002B0CDD7B699A6B013A9A6382
:101F80009B6B002B05D17B69DB6B0121184601F0AF
:101F900059F9BB6A002B0CDB00210D48FEF745FF09
:101FA000BB690F4A9B1A9B100E4A02FB03F30133D5
:101FB0000AE000BFB869FFF7C9FB00E000BF0021DD
:101FC0000348FEF732FFBB6A18463037BD4680BD76
:101FD0001401002028010020398EE338E41300208A
:101FE00080070020C54EECC480B588B002AFF86011
:101FF000B9607A603B60022301933B6A00933B68BF
:102000007A68B968F868FFF70FFF78617B6918464E
:102010001837BD4680BD000080B500AF00210748DD
:10202000FEF7F3FE0648FFF7B1FA054B00229A606F
:1020300000210248FEF7F9FE00BF80BD1401002018
:10204000C80A002080B582B000AF1A4B1B68002B75
:102050002CD000211848FEF7D8FE184B1A68154BF3
:102060009B68D31A154A1360124B00229A6012E043
:10207000104B1B68083B7B607B6800221A610021C3
:102080000D48FEF7D2FE00217868FFF727FE0021F9
:102090000948FEF7BAFE0748FFF788FA0346002B07
:1020A000E6D000210448FEF7C0FE00E000BF08377C
:1020B000BD4680BDC80A002014010020B0250020C4
:1020C00080B582B000AF1F48FFF760FA00237B6045
:1020D00011E01D4A7B689B011344103300221A60F3
:1020E0007B689B01184A134416491846FFF770FA9B
:1020F0007B6801337B607B680F2BEADD1348FFF7B9
:1021000045FA00237B6015E0114A7B68342101FB0E
:1021100003F31344083300221A607B68342202FB65
:1021200003F30B4A134409491846FFF751FA7B6839
:1021300001337B607B680F2BE6DD002318460837F0
:10214000BD4680BD7807002078030020C00A00202B
:102150008007002080B400AF00231846BD465DF81C
:10216000047B704780B483B000AF78607B687A6886
:102170001A607B687A685A6000BF0C37BD465DF80C
:10218000047B704780B483B000AF78607B681B68C5
:102190007A689A420CBF01230023DBB218460C3741
:1021A000BD465DF8047B704780B483B000AF7860B3
:1021B00039603B685A687B685A607B683A681A6085
:1021C0003B685B687A681A603B687A685A6000BF4F
:1021D0000C37BD465DF8047B704780B485B000AF16
:1021E00078607B681B687A689A4201D100230BE013
:1021F0007B681B68FB60FB681A687B681A60FB6879
:102200001B687A685A60FB6818461437BD465DF84B
:10221000047B704780B400AF054B1B68002BCCBF1C
:1022200001230023DBB21846BD465DF8047B7047EE
:102230007026002080B485B000AFF860B9607A6085
:102240007B6803F00103002B09D0FB685A69BB6867
:102250001340002B14BF01230023DBB209E0FB680D
:102260005A69BB681340BA689A420CBF0123002325
:10227000DBB218461437BD465DF8047B704700009A
:1022800080B582B000AF0E48FFF76CFF0D4B3B608E
:102290000D4B7B600AE07B6800229A607B680849EE
:1022A0001846FFF781FF7B6818337B607A683B68CC
:1022B0009A42F0D3002318460837BD4680BD00BFC0
:1022C000540C0020540C0020D40A002080B588B0A3
:1022D00000AF78600923BB617B685A68BB69DB4348
:1022E0001340002B02D06FF00A033EE003F026FFFC
:1022F00078612048FFF771FF38613B69002B03D1FB
:102300006FF02103FB611DE03B691B4A9B1ADB1048
:102310001A4A02FB03F30133FB603B691846FFF7DF
:1023200021FF3B69FA689A607B681A683B69DA604A
:102330007B685A683B691A617B689A683B695A6195
:10234000FB68FB617B69002B0BD10D4B1A680D4BB1
:102350001B689A4205D00C4B1B68002B01D104F07E
:102360001FF8786903F0D0FEFB6918462037BD4698
:1023700080BD00BF540C0020D40A0020ABAAAAAA3A
:10238000E4130020E8130020E013002080B586B09D
:1023900000AF786000237B617B68002B02DD7B68E7
:1023A000102B02DD6FF0110332E07B685A1E1346DA
:1023B0005B001344DB00184A13443B6103F0BEFE8C
:1023C000F8603B699B68002B03D16FF029037B61A8
:1023D0000BE03B69184602F081F93B690F4918464A
:1023E000FFF7E2FE3B6900229A60FB68002B0BD1ED
:1023F0000B4B1A680B4B1B689A4205D00A4B1B68A3
:10240000002B01D103F0CCFFF86803F07DFE7B695F
:1024100018461837BD4680BDD40A0020540C002051
:10242000E4130020E8130020E013002080B58AB0F8
:1024300000AF7860396000233B627B68002B02DDCF
:102440007B68102B02DD6FF011036AE07B685A1E77
:1024500013465B001344DB00344A1344FB6103F072
:102460006DFEB861FB699B68002B03D16FF02903F7
:102470003B6243E0FB695A693B681A43FB695A6156
:10248000FB691B687B6233E07B6A7B617B6A1B684C
:102490007B627B691B6C3B617B695B6CFB60FA68F0
:1024A0003969F869FFF7C6FE0346002B20D07B6927
:1024B0009B6CFA6952691A60786902F082F8FB68CD
:1024C00003F02003002B0AD0FB695A693B69DB4308
:1024D0001A40FB695A61FB695B69002B0DD0FB68F0
:1024E00003F01003002B03D0FB6900225A6105E0C2
:1024F000FB697A6A9A42C7D100E000BFBB69002B32
:102500000BD10B4B1A680B4B1B689A4205D00A4B38
:102510001B68002B01D103F043FFB86903F0F4FD01
:102520003B6A18462837BD4680BD00BFD40A00204C
:10253000E4130020E8130020E013002080B584B0ED
:1025400000AF786039607B681B6B5A1E13465B00D6
:102550001344DB00054A1344FB607968F86802F015
:102560000FF900BF1037BD4680BD00BFD40A002060
:1025700080B588B000AFF860B9607A603B60002336
:102580007B61FB68002B02DDFB68102B02DD6FF026
:102590001103A3E0BB68002B02D16FF010039DE094
:1025A0007B6823F03103002B02D06FF0100395E01D
:1025B000BB6AB3F1FF3F02DA6FF010038EE0494BC4
:1025C0001B68002B0DD1FFF725FE0346002B08D119
:1025D000454B1B68002B04D003F0A3FD0346002BE2
:1025E00002D06FF0180379E0FB685A1E13465B00B7
:1025F0001344DB003D4A1344FB6103F09FFDB861C7
:10260000FB699B68002B03D16FF029037B6152E0CB
:10261000FB691B6903F00803002B0AD1FB6918460C
:10262000FFF7B0FD0346002B03D16FF028037B6159
:1026300041E07A68B968F869FFF7FCFD0346002BB2
:1026400018D0FB695A693B681A607B6803F0200365
:10265000002B06D0FB695A69BB68DB431A40FB6953
:102660005A617B6803F01003002B24D0FB69002221
:102670005A6120E0FB691B6903F00103002B01D0C4
:102680001B4A00E01B4A184B1B68DA62164B1B689A
:1026900007F11402DA63144B1B68BA681A64124B10
:1026A0001B687A685A64104B1B683A689A64B96A66
:1026B000F86902F02FF8BB69002B0BD10A4B1A689E
:1026C0000D4B1B689A4205D0064B1B68002B01D1AD
:1026D00003F066FEB86903F017FD7B6918462037E2
:1026E000BD4680BDE0130020E4130020D40A002082
:1026F000846B0000786B0000E813002080B586B082
:1027000000AF786039607B682F2B02D96FF010031F
:1027100033E03B68002B0FD03B681B6823F00103BC
:10272000002B02D06FF00A0327E03B681B687B6137
:102730003B685B683B6103E000237B6100233B61F6
:1027400003F0FCFCF8607B683A697969184603F08D
:1027500009FFB860FB68002B0BD10A4B1A680A4BC3
:102760001B689A4205D0094B1B68002B01D103F06E
:1027700017FEF86803F0C8FCBB6818461837BD465A
:1027800080BD00BFE4130020E8130020E013002008
:1027900080B483B000AF78607B687A681A607B6829
:1027A0007A685A6000BF0C37BD465DF8047B7047FD
:1027B00080B483B000AF786039603B685A687B684A
:1027C0005A607B683A681A603B685B687A681A608E
:1027D0003B687A685A6000BF0C37BD465DF8047BE1
:1027E0007047000080B582B000AF0E48FFF7D0FF01
:1027F0000D4B3B600D4B7B600AE07B6800229A60CA
:102800007B6808491846FFF7D3FF7B681C337B6061
:102810007A683B689A42F0D3002318460837BD46D1
:1028200080BD00BF3C0D00203C0D00205C0C002052
:1028300080B483B000AF78607B687A681A607B6888
:102840007A685A6000BF0C37BD465DF8047B70475C
:1028500080B483B000AF786039603B685A687B68A9
:102860005A607B683A681A603B685B687A681A60ED
:102870003B687A685A6000BF0C37BD465DF8047B40
:10288000704780B483B000AF78607B681B687A685B
:102890009A4209D07B685B687A6812681A607B6824
:1028A0001B687A6852685A6000BF0C37BD465DF8F5
:1028B000047B704780B485B000AF786039607B6876
:1028C0000C33FB607B681B68002B00DA03339B1022
:1028D0001A463B6893422BDD0023BB6010E0FB6887
:1028E00008335B68BB60BA683B689A4208DCBA6828
:1028F0003B689A4202DAFB681B6824E0FB6822E02E
:10290000FB685B68FB607B680C33FA689A42E6D12F
:10291000BA683B689A4202DBFB681B6813E0FB68FD
:1029200011E0FB6808335B681A463B68934208DD98
:10293000FB681B68FB607B680C33FA689A42F0D135
:1029400000E000BFFB6818461437BD465DF8047B05
:10295000704780B584B000AF786039603B681A6812
:102960003B680833D31AFB60F9687868FFF7A2FF69
:10297000B8603B685B6823F001031A463B685A6005
:102980007B680C33BA689A4227D0BB6808335B680F
:102990001A46FB68934220D1BB6803F108023B68EA
:1029A000103312681A60BB6808333A6810321A6034
:1029B0003B681033BA6808325A603B6810331B68B2
:1029C000002B05D03B6810331B683A6810325A6000
:1029D0003B68083300221A600EE03B680833B96890
:1029E0001846FFF735FF3B68103300221A603B683A
:1029F0001033FA685A6000BF00BF1037BD4680BD73
:102A000080B582B000AF78607B681B68002B15D161
:102A10007B6803F108027B6808335B6812681A6000
:102A20007B6808331B68002B20D07B6803F1080209
:102A30007B6808331B6852685A6017E07B6808336C
:102A40001B68002B0FD07B6808331B68083B796834
:102A50001846FFF7FDFE7B6803F108027B68083328
:102A60001B6852685A607868FFF70BFF00BF083791
:102A7000BD4680BD80B483B000AF786039603B68EC
:102A80007A685A607B681A683B681A607B681B68C2
:102A90005B6803F001023B681A437B681B685A605D
:102AA0007B683A681A6000BF0C37BD465DF8047B4E
:102AB000704780B483B000AF78607B685B6823F0B8
:102AC00001031A467B681B6813607B681B685B68A0
:102AD00003F001027B685B6823F001031A437B6803
:102AE0001B685A6000BF0C37BD465DF8047B704719
:102AF00080B586B000AF78607B68002B01DC0023D6
:102B000045E07B680F2B02D810237B6004E07B68D4
:102B1000073323F007037B6003F010FB38611E4B83
:102B20001B6879681846FFF7C5FE78611A4B1B6869
:102B30000C337A699A4202D100237B6123E07869E1
:102B4000FFF75EFF7B69083BFB607B6908335B68CE
:102B50001A467B68D31A172B0ED97B680833FA689C
:102B60001344BB60B968F868FFF784FF0A4B1B6821
:102B7000B9681846FFF7EDFEFB685B6843F0010398
:102B80001A46FB685A60386903F0BEFA7B6918463A
:102B90001837BD4680BD00BF440D002080B584B00D
:102BA00000AF786003F0CAFAB8607B68083BFB604E
:102BB000FB685B6823F001031A46FB685A60FB68F8
:102BC0001B685B6803F00103002B0AD1FB681B68DC
:102BD00008331846FFF714FFFB681B681846FFF719
:102BE00068FFFB685B685B6803F00103002B0CD196
:102BF000FB685B68FB60FB6808331846FFF700FF63
:102C0000FB681B681846FFF754FF064B1B68F96802
:102C10001846FFF79EFEB86803F076FA00BF10373B
:102C2000BD4680BD440D002080B500AF064B1B683B
:102C300004331846FFF7FCFD034B1B680C331846A2
:102C4000FFF7F6FD00BF80BD440D002080B582B0C7
:102C500000AF2E4B1B68033323F003031A462B4BA4
:102C60001A602A4B1B682A4A1360284B1B681433CE
:102C70001A46264B1A60254B1B68073323F00703BF
:102C80001A46224B1A60214B1B687B60214B1B6844
:102C90001A461E4B1B68D31AA3F110021C4B1B686B
:102CA0001A601C4B1B68194A1360FFF7BDFF184BD5
:102CB0001B681B6808337A6813443B60144B1B681D
:102CC000043339681846FFF7D5FE114B1B680433EF
:102CD00079681846FFF7CEFE3B685B6843F0010356
:102CE0001A463B685A600A4B1B689B6843F0010216
:102CF000074B1B689A60064B1B6879681846FFF7FC
:102D000028FE002318460837BD4680BD74260020E3
:102D1000440D00207826002080B483B000AF786096
:102D20007B687A681A607B687A685A6000BF0C37E3
:102D3000BD465DF8047B704780B483B000AF786017
:102D400039603B685A687B685A607B683A681A60E9
:102D50003B685B687A681A603B687A685A6000BFB3
:102D60000C37BD465DF8047B704780B483B000AF7C
:102D700078607B6800221A6000BF0C37BD465DF8A2
:102D8000047B704780B582B000AF1048FFF7C4FFE6
:102D90000F4B3B600F4B7B600FE07B6800229A601B
:102DA0007B6830331846FFF7E0FF7B680749184619
:102DB000FFF7C2FF7B6838337B607A683B689A42D2
:102DC000EBD3002318460837BD4680BD080F00200E
:102DD000080F0020480D002080B483B000AF786059
:102DE0007B687A681A607B687A685A6000BF0C3723
:102DF000BD465DF8047B704780B483B000AF786057
:102E000039603B685A687B685A607B683A681A6028
:102E10003B685B687A681A603B687A685A6000BFF2
:102E20000C37BD465DF8047B7047000080B582B06A
:102E300000AF0E48FFF7D0FF0D4B3B600D4B7B60A2
:102E40000AE07B6800229A607B6808491846FFF711
:102E5000D3FF7B6834337B607A683B689A42F0D357
:102E6000002318460837BD4680BD00BFE00F002094
:102E7000E00F0020100F002080B483B000AF786016
:102E80007B687A681A607B687A685A6000BF0C3782
:102E9000BD465DF8047B704780B483B000AF7860B6
:102EA00039603B685A687B685A607B683A681A6088
:102EB0003B685B687A681A603B687A685A6000BF52
:102EC0000C37BD465DF8047B7047000080B582B0CA
:102ED00000AF0E48FFF7D0FF0D4B3B600D4B7B6002
:102EE0000AE07B6800229A607B6808491846FFF771
:102EF000D3FF7B6834337B607A683B689A42F0D3B7
:102F0000002318460837BD4680BD00BF8811002049
:102F100088110020E80F002080B483B000AF7860F3
:102F20007B687A681A607B687A685A6000BF0C37E1
:102F3000BD465DF8047B704780B483B000AF786015
:102F400039603B685A687B685A607B683A681A60E7
:102F50003B685B687A681A603B687A685A6000BFB1
:102F60000C37BD465DF8047B7047000080B582B029
:102F700000AF0E48FFF7D0FF0D4B3B600D4B7B6061
:102F80000AE07B6800229A607B6808491846FFF7D0
:102F9000D3FF7B6820337B607A683B689A42F0D32A
:102FA000002318460837BD4680BD00BF1012002020
:102FB000101200209011002080B483B000AF786020
:102FC0007B687A681A607B687A685A6000BF0C3741
:102FD000BD465DF8047B704780B483B000AF786075
:102FE00039603B685A687B685A607B683A681A6047
:102FF0003B685B687A681A603B687A685A6000BF11
:103000000C37BD465DF8047B704780B485B000AFD7
:1030100078607B681B687A689A4201D100230BE0D4
:103020007B681B68FB60FB681A687B681A60FB683A
:103030001B687A685A60FB6818461437BD465DF80D
:10304000047B704780B400AF054B1B68002BCCBFDE
:1030500001230023DBB21846BD465DF8047B7047B0
:103060007026002080B582B000AF0E48FFF7A4FFA5
:103070000D4B3B600D4B7B600AE07B6800229A6041
:103080007B6808491846FFF7A7FF7B681C337B6005
:103090007A683B689A42F0D3002318460837BD4649
:1030A00080BD00BFD8130020D813002018120020C4
:1030B00080B588B000AF78600323BB617B685A6835
:1030C000BB69DB431340002B02D06FF00A0359E0C9
:1030D0007B689B68002B02DA6FF0100352E07B687C
:1030E000DB68002B02DC6FF010034BE07B68DA68D2
:1030F0007B689B689A4202DA6FF0100342E003F0AB
:103100001DF878612148FFF780FF38613B69002B8B
:1031100003D16FF02103FB6121E03B691C4A9B1A3C
:103120009B101C4A02FB03F30133FB603B6918460A
:10313000FFF742FF3B69FA689A607B681A683B694F
:10314000DA607B685A683B691A617B689A683B69F8
:103150005A617B68DA683B699A61FB68FB617B694D
:10316000002B0BD10C4B1A680C4B1B689A4205D0F4
:103170000B4B1B68002B01D103F012F9786902F0A8
:10318000C3FFFB6918462037BD4680BDD813002019
:1031900018120020B76DDBB6E4130020E8130020FE
:1031A000E013002080B586B000AF786000237B611B
:1031B0007B68002B02DD7B68102B02DD6FF01103B2
:1031C00032E07B685A1E1346DB009B1A9B00184AAC
:1031D00013443B6102F0B2FFF8603B699B68002B2F
:1031E00003D16FF029037B610BE03B69184601F0C6
:1031F00075FA3B690F491846FFF7EEFE3B6900225E
:103200009A60FB68002B0BD10B4B1A680B4B1B68A9
:103210009A4205D00A4B1B68002B01D103F0C0F87D
:10322000F86802F071FF7B6918461837BD4680BD0B
:1032300018120020D8130020E4130020E813002007
:10324000E013002080B588B000AF786039600023BB
:10325000BB617B68002B02DD7B68102B02DD6FF009
:1032600011036AE03B68002B02DC6FF0100364E09E
:103270007B685A1E1346DB009B1A9B00314A13449D
:103280007B6102F05BFF38617B699B68002B03D197
:103290006FF02903BB613DE07B699A697B695B69DB
:1032A000D31A3A689A4203DD6FF02A03BB6131E01A
:1032B0007B695A693B681A447B695A617B691B6860
:1032C000FB611FE0FB69FB60FB691B68FB617B69BD
:1032D0005A69FB681B6C9A4206DA7B691B6903F02A
:1032E0000203002B13D00DE0F86801F06AF97B6946
:1032F0005A69FB681B6CD21A7B695A617B695B69EE
:10330000002B06DD7B69FA699A42DBD102E000BF3F
:1033100000E000BF3B69002B0BD10B4B1A680B4B35
:103320001B689A4205D00A4B1B68002B01D103F0A1
:1033300037F8386902F0E8FEBB6918462037BD4609
:1033400080BD00BF18120020E4130020E813002005
:10335000E013002080B586B000AF786039607B68EC
:103360001B6B5A1E1346DB009B1A9B00194A134421
:103370003B613B68002B03DB7968386901F000FA98
:103380003B691B6903F00203002B1DD13B691B68DD
:103390007B6114E07B69FB607B691B687B613B6937
:1033A0005A69FB681B6C9A4210DBF86801F009F956
:1033B0003B695A69FB681B6CD21A3B695A613B69CD
:1033C0007A699A42E6D102E000BF00E000BF1837F8
:1033D000BD4680BD1812002080B582B000AF786075
:1033E0004FF0FF317868FFF7B5FF00BF0837BD46E3
:1033F00080BD000080B588B000AFF860B9607A6029
:1034000000237B61FB68002B02DDFB68102B02DDD3
:103410006FF0110387E0BB68002B02DC6FF0100334
:1034200081E07B68B3F1FF3F02DA6FF010037AE0CE
:103430003F4B1B68002B0DD1FFF704FE0346002B0A
:1034400008D13C4B1B68002B04D002F06AFE0346F7
:10345000002B02D06FF0180365E0FB685A1E13467C
:10346000DB009B1A9B00344A1344FB6102F066FEAA
:10347000B861FB699B68002B03D16FF029037B6166
:103480003EE0FB699B69BA689A4203DD6FF0100366
:103490007B6135E0FB691B6903F00203002B0AD155
:1034A000244B1B681946F86901F07CF90246214B50
:1034B0001B689A420BD1FB695B69BA689A4206DCC9
:1034C000FB695A69BB68D21AFB695A6118E0FB694B
:1034D0001B6903F00103002B01D0184A00E0184AD1
:1034E000144B1B68DA62134B1B6807F11402DA6392
:1034F000104B1B68BA681A647968F86901F00AF918
:10350000BB69002B0BD10B4B1A680E4B1B689A4200
:1035100005D0074B1B68002B01D102F041FFB869B1
:1035200002F0F2FD7B6918462037BD4680BD00BF22
:10353000E0130020E4130020181200209C6B000010
:10354000906B0000E813002080B483B000AF786077
:103550007B687A681A607B687A685A6000BF0C37AB
:10356000BD465DF8047B704780B483B000AF7860DF
:103570007B681B687A689A420CBF01230023DBB288
:1035800018460C37BD465DF8047B704780B483B0A5
:1035900000AF786039603B685A687B685A607B6826
:1035A0003A681A603B685B687A681A603B687A68B8
:1035B0005A6000BF0C37BD465DF8047B704780B48D
:1035C00083B000AF78607B681B687A689A4209D044
:1035D0007B685B687A6812681A607B681B687A6827
:1035E00052685A6000BF0C37BD465DF8047B7047D7
:1035F00080B483B000AF786039600BE001223B6893
:103600009A407B681340002B01D03B6806E03B6882
:1036100001333B603B681F2BF0DD202318460C373D
:10362000BD465DF8047B704780B584B000AF78601C
:103630007B6820221A600023FB600AE0FB68DB0045
:103640007A68134404331846FFF77EFFFB680133A2
:10365000FB60FB681F2BF1DD7B680022C3F80421AF
:103660007B680022C3F80C217B6803F58473042275
:1036700000211846FDF76FFC00BF1037BD4680BD26
:1036800080B483B000AF78607B68D3F80C31002B36
:1036900003D07B68D3F80C3105E07B681B687A683F
:1036A000DB0013445B6818460C37BD465DF8047BAD
:1036B000704780B584B000AF786039603B6893F89C
:1036C0002630FB603868FB68DB007A6813440433FB
:1036D0001946FFF75BFF7B68D3F808210121FB68DF
:1036E00001FA03F31A437B68C3F808213B6893F897
:1036F000283003F00203DBB2002B03D07B683A686A
:10370000C3F80C217B681B68FA689A4204DA7B686C
:10371000FA681A60012300E0002318461037BD46FE
:1037200080BD80B584B000AF786039603B6893F8A5
:103730002630FB607B68D3F80C313A689A4203D19B
:103740007B680022C3F80C213B681846FFF737FF5F
:103750003B6893F8283003F00103DBB2002B07D05D
:103760003A6892F828306FF3000382F8283029E095
:10377000FB68DB007A68134404331846FFF7F4FE55
:103780000346002B1BD07B68D3F808210121FB687E
:1037900001FA03F3DB431A407B68C3F808217B6816
:1037A0001B68FA689A420CD17B68D3F80831F96833
:1037B0001846FFF71DFF02467B681A6002E000BF53
:1037C00000E000BF1037BD4680BD80B485B000AFBB
:1037D00078607B681B6EFB60FB68443BFB60FB68AA
:1037E0006FF006021A60FB6800229A63FB684FF0D4
:1037F00080721A647B685B6923F001031A46FB68D8
:10380000DA637B68FA689A6100BF1437BD465DF8D9
:10381000047B704780B584B000AF194B00221A605A
:10382000174B1B68174A13601748FFF7FDFE174B2D
:1038300000221A601648FFF787FE164BBB60002374
:10384000FB6014E0FB6801337B60BB687A689A60B8
:10385000BB68002283F82720BB680D491846FFF794
:1038600095FEBB686833BB60FB680133FB60FB6897
:103870001F2BE7DD002318461037BD4680BD00BF73
:10388000E8130020E4130020EC130020E0130020D4
:10389000FC210020FC14002080B582B000AF7860CD
:1038A0007B68082283F827207B6893F824207B68B4
:1038B00083F825207B6893F825207B6883F82620F1
:1038C0007B6893F920301AB27B685A847B680022A7
:1038D0005A637B6800229A637A6892F828306FF303
:1038E000000382F828307A6892F828306FF3410399
:1038F00082F828307B680022DA637B6800225A66EF
:103900007868FFF762FF00BF0837BD4680BD000042
:1039100080B582B000AF78607B68012283F82720F1
:1039200079680648FFF7C5FE0346002B02D0044A1B
:103930007B68136000BF0837BD4680BDEC130020D4
:10394000E813002080B582B000AF7860796809483C
:10395000FFF7E7FE084B1B687A689A4205D10548D5
:10396000FFF78EFE0346044A136000BF0837BD46CA
:1039700080BD00BFEC130020E813002080B485B0A8
:1039800000AF78607B681B687A689A4201D1002397
:103990000BE07B681B68FB60FB681A687B681A6039
:1039A000FB681B687A685A60FB6818461437BD4686
:1039B0005DF8047B7047000080B400AF054B1B68C6
:1039C000002BCCBF01230023DBB21846BD465DF8B7
:1039D000047B70477026002080B485B000AF78600B
:1039E00039607B689B69FB603A68FB685A627B6858
:1039F000DB681A46FB689A6200BF1437BD465DF863
:103A0000047B704780B588B000AF786041F2213305
:103A10003B617B685A683B69DB431340002B02D053
:103A20006FF00A0386E07B68DB68002B03DD7B68B0
:103A3000DB68202B02DD6FF010037BE07B681B69E5
:103A40008033FB61FB697F2B02DC6FF0100371E0B8
:103A50007B685B6803F02003002B03D07B685B6905
:103A6000BB6111E0FB690733002B00DA0733DB1081
:103A7000DB00FB61F869FFF73BF8B861BB69002B1D
:103A800002D16FF0200355E002F058FBF8602B489C
:103A9000FFF774FFB860BB68002B03D16FF0210300
:103AA0007B6128E07B681A68BB68DA607B685A68CB
:103AB000BB681A617B689A68BB685A617B68DB687F
:103AC000DBB2013BDAB2BB6883F82420BB68FA6939
:103AD000DA61FB69BA691A44BB681A66BB680122DD
:103AE00083F82020BB6801225A84B868FFF7D4FE0F
:103AF000BB689B687B61FB68002B0BD1104B1A687D
:103B0000104B1B689A4205D00F4B1B68002B01D14C
:103B100002F046FCF86802F0F7FA7B69002B08DA3D
:103B20007B685B6803F02003002B02D1B869FFF7C4
:103B300035F87B6918462037BD4680BDFC21002042
:103B4000E4130020E8130020E013002080B586B0C5
:103B500000AF7860396000237B61FFF72DFF0346DB
:103B6000002B09D12F4B1B68002B05D07B68002B45
:103B700002D16FF0280350E07B68002B02DD7B68E8
:103B8000202B02DD6FF0110347E0FFF715FF03461E
:103B9000002B0CD1234B1B68002B08D0214B1B683A
:103BA0009B687A689A4202D16FF0280335E07B68FF
:103BB000013B682202FB03F31B4A13443B6102F002
:103BC000BDFAF8603B6993F82730FB72FB7A082B4B
:103BD00009D0FB7A002B02D16FF0290301E06FF0CE
:103BE00028037B6106E039683869FFF7F5FE38691C
:103BF000FFF78EFEFB68002B0BD10A4B1A680B4BAC
:103C00001B689A4205D00A4B1B68002B01D102F0B9
:103C1000C7FBF86802F078FA7B6918461837BD468A
:103C200080BD00BFE4130020FC140020E813002036
:103C3000E013002080B400AF064B1B68002B03D0BC
:103C4000044B1B689B6800E000231846BD465DF8E6
:103C5000047B7047E413002080B483B000AF786029
:103C60007B687A681A607B687A685A6000BF0C3794
:103C7000BD465DF8047B704780B400AF054B1B6800
:103C8000002BCCBF01230023DBB21846BD465DF8F4
:103C9000047B70477026002080B483B000AF0346D9
:103CA000FB71FB7903F00703002B14BF01230023F2
:103CB000DBB218460C37BD465DF8047B7047000048
:103CC00080B584B000AF78600023BB607B68B3F13F
:103CD000FF3F02DA6FF0100351E02B4B1B68002B03
:103CE0000DD1FFF7C9FF0346002B08D1274B1B68F6
:103CF000002B04D002F015FA0346002B02D06FF01F
:103D000018033CE002F01AFAF860204B1B685B6B6A
:103D1000002B05DD1D4B1B685A6B013A5A631BE0F3
:103D20006FF03103BB607B68002B15D0174B1B680D
:103D3000174ADA62154B1B6800221A63134B1B6883
:103D400007F10802DA630021786800F063FC0F4B8A
:103D50001B681846FFF780FFFB68002B0BD10B4B4D
:103D60001A680C4B1B689A4205D0074B1B68002B46
:103D700001D102F015FBF86802F0C6F9BB681846DD
:103D80001037BD4680BD00BFE0130020E4130020C3
:103D9000A86B0000E813002080B586B000AF786003
:103DA00000237B61FFF768FF0346002B09D13C4BE2
:103DB0001B68002B05D07B68002B02D16FF0280315
:103DC0006AE07B68002B02DD7B68202B02DD6FF050
:103DD000110361E0FFF750FF0346002B0CD1304B7D
:103DE0001B68002B08D02E4B1B689B687A689A4290
:103DF00002D16FF028034FE07B68013B682202FB91
:103E000003F3284A13443B6102F098F9F8603B69D8
:103E100093F82730FB72FB7A1846FFF73DFF034605
:103E2000002B09D1FB7A002B02D16FF0290301E0AE
:103E30006FF028037B611CE0FB7A03F00203002B88
:103E400008D03B69DB6A184A934203D1386900F015
:103E5000B8FB0EE03B695B6B6FF00042934203D10D
:103E60006FF02A037B6104E03B695B6B5A1C3B6982
:103E70005A63FB68002B0BD1094B1A680B4B1B686C
:103E80009A4205D00A4B1B68002B01D102F088FA38
:103E9000F86802F039F97B6918461837BD4680BDCD
:103EA000E4130020FC140020A86B0000E81300209D
:103EB000E013002080B584B000AF78600023BB60C1
:103EC0007B68002B02DA6FF0100343E0234B1B6882
:103ED000002B0DD1FFF7D0FE0346002B08D1204B5D
:103EE0001B68002B04D002F01CF90346002B02D003
:103EF0006FF018032EE07B68002B2AD002F01EF929
:103F0000F860174B1B68174ADA62154B1B680022D2
:103F10001A63134B1B6807F10802DA630021786803
:103F200000F0AAFB0E4B1B681846FFF795FEFB68D6
:103F3000002B0BD10A4B1A680B4B1B689A4205D019
:103F4000064B1B68002B01D102F02AFAF86802F038
:103F5000DBF8BB6818461037BD4680BDE013002073
:103F6000E4130020B46B0000E813002080B483B099
:103F700000AF78607B687A681A607B687A685A60FC
:103F800000BF0C37BD465DF8047B704780B483B03A
:103F900000AF786039603B685A687B685A607B681C
:103FA0003A681A603B685B687A681A603B687A68AE
:103FB0005A6000BF0C37BD465DF8047B70470000B7
:103FC00080B582B000AF0D48FFF7D0FF0C4B3B60CF
:103FD0000C4B7B6009E07B6800229A600749786897
:103FE000FFF7D4FF7B6828337B607A683B689A428E
:103FF000F1D3002318460837BD4680BDA422002017
:10400000A42200200422002080B582B000AF0D4819
:10401000FFF7ACFF0C4B3B600C4B7B6009E07B680F
:1040200000229A6007497868FFF7B0FF7B68243365
:104030007B607A683B689A42F1D3002318460837C0
:10404000BD4680BDCC230020CC230020AC22002024
:1040500080B483B000AF786039607B683A681A60DA
:1040600000BF0C37BD465DF8047B704780B483B059
:1040700000AF78607B681B6818460C37BD465DF85A
:10408000047B704780B483B000AF78607B687A6847
:104090001A607B687A685A6000BF0C37BD465DF8CD
:1040A000047B704780B483B000AF78607B681B6886
:1040B0007A689A420CBF01230023DBB218460C3702
:1040C000BD465DF8047B704780B483B000AF786074
:1040D00039603B685A687B685A607B683A681A6046
:1040E0003B685B687A681A603B687A685A6000BF10
:1040F0000C37BD465DF8047B704780B483B000AFD9
:1041000078607B681B687A689A4209D07B685B6834
:104110007A6812681A607B681B687A6852685A600D
:1041200000BF0C37BD465DF8047B704780B483B098
:1041300000AF786039607A683B68D31ADB43DB0FE5
:10414000DBB218460C37BD465DF8047B70470000B3
:1041500080B582B000AF01F0F1FF786006210A4817
:10416000FFF776FF094B3B6039680948FFF770FF9E
:1041700007210548FFF76CFF786801F0C5FF00BF15
:104180000837BD4680BD00BF10E000E0FFC3090056
:1041900014E000E080B500AF0448FFF767FF4FF080
:1041A00000710348FFF754FF00BF80BD10E000E03E
:1041B00004ED00E080B400AF00BFBD465DF8047BB5
:1041C0007047000080B500AF00210248FFF740FFB4
:1041D00000BF80BD10E000E080B500AF0A494FF09D
:1041E00000024FF00003C1E90023074BD3E900238D
:1041F0000649C1E900230648FFF744FFFFF7A8FF7F
:104200000023184680BD00BFE0230020D8230020F3
:10421000E823002080B500AFFFF7D4FF00BF80BDCA
:1042200080B584B000AF7860134BD3E90023134608
:1042300003F100430133BB60104B1B68FB600CE0D3
:104240007B689A68BB68D21AFB689968BB68CB1A0E
:104250009A4207D3FB681B68FB60FB68074A9342DE
:10426000EED100E000BF7B68F9681846FFF72CFF2D
:1042700000BF1037BD4680BDD8230020E8230020B2
:1042800080B584B000AFF860B9607A603B60FB68CD
:104290007A68DA60FB683A681A61BB68B3F1FF3F7D
:1042A00004D1FB681846FFF7EDFE0BE0074BD3E99E
:1042B0000023BB68134403F10A02FB689A60F868A4
:1042C000FFF7AEFF00BF1037BD4680BDD8230020EA
:1042D00080B584B000AFF860B9607A603B60FB687D
:1042E0007A68DA60FB683A681A61084BD3E9002300
:1042F000BB68134403F10A02FB689A60F868FFF791
:104300008FFF00BF1037BD4680BD00BFD8230020FF
:10431000B0B584B000AFFFF73DFF01F00FFFF860CC
:10432000244BD3E9002312F10A0443F10005214B89
:10433000C3E900451F4BD3E900231346BB6019E0D6
:104340001D4B1B687B607B689B681946B868FFF74C
:10435000EDFE0346002B14D07B681846FFF7CDFE18
:104360007B68DB68002B05D07B68DB687A681269A4
:10437000104698471048FFF795FE0346002BDFD004
:1043800000E000BFFB68002B0BD10C4B1A680C4BF4
:104390001B689A4205D00B4B1B68002B01D101F022
:1043A000FFFFF86801F0B0FEFFF704FF00BF103711
:1043B000BD46B0BDD8230020E8230020E413002030
:1043C000E8130020E013002080B582B000AFFFF7B3
:1043D00021FA78607B68002B01DA7B6848E0FEF701
:1043E00041FE78607B68002B01DA7B6840E0FDF7D6
:1043F00047FF78607B68002B01DA7B6838E0FEF7C6
:10440000F1F978607B68002B01DA7B6830E0FEF719
:104410005DFD78607B68002B01DA7B6828E0FEF7A1
:10442000A5FD78607B68002B01DA7B6820E0FEF751
:10443000FDFC78607B68002B01DA7B6818E0FEF7F2
:10444000A1FC78607B68002B01DA7B6810E0FFF745
:10445000B7FD78607B68002B01DA7B6808E0FFF726
:10446000D3FD78607B68002B01DA7B6800E00023D5
:1044700018460837BD4680BD80B483B000AF786071
:104480007B681B687A689A420CBF01230023DBB269
:1044900018460C37BD465DF8047B704780B483B086
:1044A00000AF786039603B685A687B685A607B6807
:1044B0003A681A603B685B687A681A603B687A6899
:1044C0005A6000BF0C37BD465DF8047B704780B46E
:1044D00083B000AF78607B681B687A689A4209D025
:1044E0007B685B687A6812681A607B681B687A6808
:1044F00052685A6000BF0C37BD465DF8047B7047B8
:1045000080B582B000AF78607B681846FFF7DFFFA8
:1045100000BF0837BD4680BD80B588B000AF786069
:1045200039603B68BB61BB697B617B6893F826306F
:10453000FB742623FB607B691B68FB6109E0FB6859
:10454000FA6913441B78FA7C9A4207D3FB691B680B
:10455000FB61FA69BB699A42F1D100E000BF7B6858
:10456000F9691846FFF79AFF00BF2037BD4680BDA6
:1045700080B582B000AF78607B6893F82730022B5B
:1045800003D17868FFF7C4F903E07B68042283F85D
:10459000272000BF0837BD4680BD80B582B000AF80
:1045A00078607B684C331846FFF7AAFF7B68184693
:1045B000FFF78DFF7868FFF7DBFF00BF0837BD46C8
:1045C00080BD80B582B000AF78607868FFF7E5FF06
:1045D0007B68DB6B00221A6000BF0837BD4680BDD8
:1045E00080B582B000AF78607B681846FFF76FFF38
:1045F0007868FFF7BDFF7B68DB6A9B68002B04D0FF
:104600007B68DB6A9B687868984700BF0837BD46BF
:1046100080BD000080B582B000AF78603960144B77
:104620001B6893F82730012B02D0042B0BD010E02D
:104630000F4B1B681846FFF785F90D4B1B680222CC
:1046400083F8272005E00A4B1B68062283F8272001
:1046500000BF074B1B6803F14C00054B1B68054A64
:104660007968FFF70DFE00BF0837BD4680BD00BF6B
:10467000E4130020E145000080B582B000AF78600F
:104680003960144B1B6893F82730012B02D0042BA0
:104690000BD010E00F4B1B681846FFF753F90D4B7A
:1046A0001B68022283F8272005E00A4B1B680622BC
:1046B00083F8272000BF074B1B6803F14C00054B14
:1046C0001B68054A7968FFF703FE00BF0837BD463F
:1046D00080BD00BFE4130020E145000080B584B038
:1046E00000AF78600AE07B681B68FB60F868FFF742
:1046F00054FFFB68DB6B6FF032021A607868FFF7DB
:10470000BBFE0346002BEED000BF00BF1037BD46F6
:1047100080BD000080B582B000AF78603960174B73
:104720001B68DB6B6FF031021A603B68002B20D0F6
:10473000124B1B687A6892681A637B681B6919467A
:104740003868FFF767FF7B681B6903F00103002BE4
:1047500007D00A4B1B687A6811461846FFF7DCFE43
:1047600007E0064B1B681A467B6819461046FFF7A0
:1047700095FE00BF0837BD4680BD00BFE413002092
:1047800080B582B000AF786039603B681846FFF7AB
:104790009EFE7B6819463868FFF7BEFE00BF0837EB
:1047A000BD4680BD80B584B000AF786039607B685D
:1047B0001846FFF761FE0346002B01D03B6815E069
:1047C0007B681B68FB607B681B6903F00103002B9F
:1047D00001D1FB680AE03B6893F82620FB6893F858
:1047E00026309A4201D23B6800E0FB681846103739
:1047F000BD4680BD80B582B000AF01F09FFCFBF7E5
:10480000C5FDFEF723FA78607B68002B03DA2548A4
:10481000FBF7E6FD44E001F0C9FC78607B68002B03
:1048200003DA2148FBF7DCFD3AE001F0CBFE7860CB
:104830007B68002B03DA1D48FBF7D2FD30E0FFF761
:10484000C3FD78607B68002B03DA1948FBF7C8FDCD
:1048500024E0FFF7C1FC78607B68002B03DA154881
:10486000FBF7BEFD1AE01448FFF7CCF878607B68D0
:10487000002B0EDB00217868FFF768F978607B6811
:10488000002B02DB01F074FD06E00C48FBF7A8FDED
:1048900002E00B48FBF7A4FDFFF7BCFC01F0D4FCE1
:1048A000FEE700BF0C680000246800003C680000C0
:1048B000586800007C680000C06B00009C68000025
:1048C000C068000080B500AFFFF7A4FC01F0BCFC9D
:1048D000FEE780B582B000AFFCF702FE78607B682F
:1048E000002B01DA7B6803E001F068FC78607B68EC
:1048F00018460837BD4680BD80B582B000AF7860ED
:1049000001F06DFC7B68002B02DB0748FBF768FDBC
:104910007B68002B02DA786801F09CFCFFF7D2FF7D
:1049200000BF0837BD4680BDE468000080B582B096
:1049300000AF01237B60FFF7CCFF38603B68002BA2
:104940000BDB002203210A48FCF708F97B68002BE7
:1049500006DD01F01DFF786002E00648FBF740FD30
:104960007868FFF7C9FF00BF0837BD4680BD00BFAC
:10497000FC6800002069000080B586B000AFF860D8
:10498000B9607A607B681B6B002B01D1002311E0BA
:104990007B6804331846FCF727F97B681B6B7A6841
:1049A000B968F868984778617B6804331846FCF763
:1049B00031F97B6918461837BD4680BD80B586B091
:1049C00000AFF860B9607A607B685B6B002B01D147
:1049D000002311E07B6804331846FCF705F97B6877
:1049E0005B6B7A68B968F868984778617B680433CC
:1049F0001846FCF70FF97B6918461837BD4680BD8D
:104A000080B586B000AFF860B9607A60FB681B7B48
:104A100003F00F03DBB2012B02D17B689B6B01E03B
:104A20007B68DB6B7B617B69002B02D16FF0080335
:104A30001DE0FB681B69002B06DB7B68DB6A002B33
:104A400002DC6FF0080312E07B6804331846FCF7C1
:104A5000E1F87B697968F868984738617B680433C6
:104A60001846FCF7D7F8FB683A691A620023184623
:104A70001837BD4680BD80B485B000AFF860B9601E
:104A80007A603B60002318461437BD465DF8047B0E
:104A9000704780B485B000AFF860B9607A603B6061
:104AA000002318461437BD465DF8047B704780B577
:104AB00086B000AFF860B9607A607B681B6C002B31
:104AC00001D1002311E07B6804331846FCF78CF811
:104AD0007B681B6C7A68B968F868984778617B686E
:104AE00004331846FCF796F87B6918461837BD461C
:104AF00080BD0000B0B592B000AFF860B9607A60D8
:104B00004420FCF711FA38643B6C002B03D16FF0A2
:104B100020037B6454E03B6CFA6803F110041546F3
:104B20000FCD0FC40FCD0FC40FCD0FC42B68236062
:104B30003B6C1A1DFB68043319461046FCF77EF8DF
:104B400078647B6C002B37DB3B6C7B61FB681B69FB
:104B5000BB61FB685B69FB61FB689B693B62FB684F
:104B6000DB697B62194BBB62194BFB62194B3B63E0
:104B7000194B7B63194BBB63194BFB633B6C1433C1
:104B800007F11401BA681846FCF77EFB78647B6C69
:104B9000002B0ADB3B6C7A6C1A607B68002B02D01E
:104BA0007B683A6C1A6000230BE000BF3B6C043357
:104BB0001846FCF781F800E000BF386CFCF7C0F93C
:104BC0007B6C18464837BD46B0BD00BF7949000030
:104BD000BD490000014A0000774A0000934A0000E6
:104BE000AF4A000080B584B000AF78607B681433B2
:104BF000002200211846FCF747FBF860FB68002BF9
:104C000009DD7B6804331846FCF756F87868FCF732
:104C100097F90023FB60FB6818461037BD4680BD3E
:104C200080B483B000AF78607B6800229A607B68B4
:104C300000225A607B685A687B681A6000BF0C3794
:104C4000BD465DF8047B704780B584B000AF7860E6
:104C50003960194A7B6852F823302833FB60FB68BF
:104C60001A68FB685B689A4221D0FB685B68FA6847
:104C700013441B7B1A463B681A60FB685B685A1C2E
:104C8000FB685A60FB685B68312B02D9FB68002225
:104C90005A60FB689B68002B07D0FB689B6818462E
:104CA000FFF77AF8FB6800229A60012300E00023F6
:104CB00018461037BD4680BDB825002080B584B0A9
:104CC00000AF786039601A4A7B6852F82330683345
:104CD000BB60BB681B680133FB60FB68312B01DDE7
:104CE0000023FB60BB685A68FB689A420BD0BB6824
:104CF0001B683A68D1B2BA6813440A461A73FA6854
:104D0000BB681A6003E08021786800F013F8BB6884
:104D10009B68002B07D0BB689B681846FFF73CF8E0
:104D2000BB6800229A6000BF1037BD4680BD00BF3F
:104D3000B825002080B483B000AF78603960094A9C
:104D40007B6852F823305969064A7B6852F8233051
:104D50003A680A435A6100BF0C37BD465DF8047BD0
:104D6000704700BFB825002080B483B000AF7860E2
:104D70007B681B69B3F1FF3F11D0002B1BDA13F1E5
:104D8000640F18DC13F1650F0DDA13F1680F0AD008
:104D900013F1680F0FDB6733012B0CD807E07B683A
:104DA0000422DA610AE07B680422DA6106E07B68AB
:104DB0000422DA6102E06FF0100300E000231846DD
:104DC0000C37BD465DF8047B7047000080B584B0A9
:104DD00000AF786039603868FFF7C6FFF860FB689D
:104DE000002B01D0FB6851E03B685B69002B4BD086
:104DF0003B681B6913F1640F12DC13F1680F3FDB92
:104E00006833042B3CD801A252F823F0634E000013
:104E1000574E00004B4E00003F4E0000334E000046
:104E2000B3F1FF3F2CD13B689B697A6892681A60A6
:104E30002BE03B689B697A68D2681A6025E03B6882
:104E40009B697A6812691A601FE03B689B697A68FF
:104E500092691A6019E03B689B697A68D2691A60A6
:104E600013E001F06BF9B8603B689B697A6852699E
:104E70001A607B6800225A61B86801F045F904E0C5
:104E80006FF01003FB6000E000BFFB6818461037AE
:104E9000BD4680BD80B584B000AF786039603868A9
:104EA000FFF762FFF860FB68002B01D0FB6861E050
:104EB0003B685B69002B5BD03B681B6913F1640F97
:104EC00014DC13F1690F4FDB6933052B4CD801A2B9
:104ED00052F823F0534F0000694F0000474F000085
:104EE0003B4F00001D4F0000FF4E0000B3F1FF3F9D
:104EF0003AD13B689B691A687B689A6039E03B68E5
:104F00009B691A687B68DA607B6818687B68DB6875
:104F10001A46002100F00CFCF8602AE03B689B690F
:104F20001A687B681A617B6818687B681B691A4677
:104F3000012100F0FDFBF8601BE03B689B691A68EB
:104F40007B689A6115E03B689B691A687B68DA6147
:104F50000FE07B6818683B689B691B681A4605214F
:104F600000F0E6FBF86004E06FF01003FB6000E087
:104F700000BFFB6818461037BD4680BD80B588B0BD
:104F800000AF786039607B686833FB60FB685B6802
:104F9000FB613B689B69BB613B685B697B6100238C
:104FA0003B617B69002B46D039E07B681B6A184661
:104FB00001F09FF8FB681B68FA699A421BD0FA69F6
:104FC000531CFB61BB69591CB961F9680A44127B27
:104FD0001A70FB69312B01D90023FB61FB68FA6968
:104FE0005A607B681B6A0521184601F075F87B69D9
:104FF000013B7B6113E0FEF71DFE0246FB689A60F1
:105000007B681B6A0521184601F066F87B68DB693E
:105010001846FEF755FE38613B69002B03D17B69CA
:10502000002BC2D100E000BF3B685A697B69D21AED
:105030003B68DA610EE0FB681A68FB685B68D31AAC
:105040007B617B69002B02DA7B6932337B613B68D1
:105050007A69DA613B6918462037BD4680BD80B564
:1050600088B000AF786039607B682833BB603B68EC
:105070009B69BB613B685B697B6100233B617B692A
:10508000002B68D05BE0BB681B680133FB61FB69E8
:10509000312B01D90023FB617B685B6A184601F064
:1050A00028F8BB685B68FA699A4234D00023FB6039
:1050B000BB681A68BB685B689A420ED17B68186847
:1050C000BB691B781A46042100F032FB0346002B13
:1050D0000CBF01230023DBB2FB60FB68002B03D075
:1050E000BB690133BB610CE0BB695A1CBA61BA6889
:1050F00012681978BB6813440A461A73BB68FA69C8
:105100001A607B685B6A0521184600F0E5FF7B6941
:10511000013B7B6113E0FEF78DFD0246BB689A60A0
:105120007B685B6A0521184600F0D6FF7B689B69A7
:105130001846FEF7C5FD38613B69002B03D17B693A
:10514000002BA0D100E000BF3B685A697B69D21AEE
:105150003B68DA611BE07B685B6A184600F0C9FFB8
:10516000BB681A68BB685B68D31A7B617B685B6A43
:105170000521184600F0B0FF7B69002B02DA7B693D
:1051800032337B617B69C3F132023B68DA613B6990
:1051900018462037BD4680BD80B586B000AFF860A8
:1051A000B9607A607B681B697B617B69BA685A6009
:1051B0007B6928331846FFF733FD7B69683318464F
:1051C000FFF72EFD7B691B6800220221184600F0C4
:1051D000AFFA38613B6918461837BD4680BD80B5C7
:1051E00086B000AFF860B9607A607B681B697B614C
:1051F0007B691B6800220321184600F099FA386188
:105200003B6918461837BD4680BD80B584B000AFF5
:10521000786039603B681B69BB607B681B69002B49
:105220000FDBBB685B6803F00103002B05D07968D6
:10523000B868FFF7A3FEF86008E06FF01A03FB60A0
:1052400004E07968B868FFF7C1FDF860FB681846AC
:105250001037BD4680BD80B584B000AF786039603E
:105260003B681B69BB607B681B69002B0FDBBB685D
:105270005B6803F00203002B05D07968B868FFF77C
:10528000EEFEF86008E06FF01A03FB6004E0796856
:10529000B868FFF7FFFDF860FB6818461037BD4699
:1052A00080BD80B485B000AFF860B9607A606FF0FF
:1052B000080318461437BD465DF8047B70470000AC
:1052C00080B594B000AF78607B68002B02D06FF09F
:1052D000100381E0A820FBF727FEB864BB6C002B0D
:1052E00002D16FF0200377E03D497B68BA6C41F84A
:1052F0002320BB6CBB600023BB610023FB61002348
:105300003B6201237B62374BBB62374BFB62374BFF
:105310003B63374B7B63374BBB6307F108030433B5
:1053200035491846FBF774FE3348FBF760FE786496
:105330007B68DBB26133D9B207F10C027B6C13449A
:105340000A461A707B6C013350333B44002203F849
:10535000442C07F13C0207F1400107F1080318460D
:10536000FFF7C8FBF864FB6C002B30D1BB6C7A688C
:105370001A603A6CBB6C9A60B86C00F03BFAF86447
:10538000FB6C002B1DD1BB6C4FF4E1321A614FF462
:10539000E1320121786800F0CBF9BB6C4FF00112CB
:1053A000DA604FF001120021786800F0C1F9BB6C9F
:1053B0004FF0FF329A61BB6C4FF0FF32DA6100238D
:1053C0000AE000BFFB6B1846FFF70CFC00E000BFD3
:1053D000B86CFBF7B5FDFB6C18465037BD4680BD79
:1053E000B825002099510000DF5100000B52000049
:1053F00057520000A35200003C69000080B483B003
:1054000000AF786039607B683A681A6000BF0C377B
:10541000BD465DF8047B704780B483B000AF786010
:105420007B681B6818460C37BD465DF8047B7047E7
:1054300080B586B000AF786000233B610FE03B6928
:105440001B01474A13447B617B691B681B0B03F0FC
:105450003F037A689A4206D03B6901333B613B695E
:10546000002BECD000E000BF3B69002B74D115E0AD
:105470007B691B6803F5847300211846FFF7BEFFA4
:105480007B691B6803F5A3631846FFF7C5FF034656
:10549000FB60FB6819463869FFF710FC7B691B68E5
:1054A00003F584731846FFF7B7FF0346002BDFD1DF
:1054B0007B691B6803F58E731846FFF7ADFF034643
:1054C000002B20D07B691B6803F58E7300211846E2
:1054D000FFF794FF07F10C0319463869FFF7B4FB97
:1054E0000346002B0CD07B691B6803F21C53FA683F
:1054F00011461846FFF782FF7B690022DA6002E05E
:105500007B690122DA607B691B6803F59273184698
:10551000FFF782FF0346002B1FD07B691B6803F552
:10552000927300211846FFF769FF7B691B6803F53A
:1055300090631846FFF770FF0346FB607B691B68AA
:1055400003F5906300211846FFF758FFFB681946E2
:105550003869FFF7EFFB00E000BF1837BD4680BD9C
:105560000001002080B582B000AF78607B681B68C6
:1055700003F5807300211846FFF740FF7B681B6826
:1055800003F5827300211846FFF738FF7B681B681C
:1055900003F5847300211846FFF730FF7B681B6812
:1055A00003F58E7300211846FFF728FF7B681B6800
:1055B00003F5927300211846FFF720FF7B681B68F4
:1055C00003F5A27300211846FFF718FF7B681B68DC
:1055D00003F224527B689B6819461046FFF70EFFC2
:1055E0007B681B6803F26C527B685B689BB2194650
:1055F0001046FFF703FF7B685B6803F48033002BE2
:1056000008D07B681B6803F5007318211846FFF764
:10561000F5FE07E07B681B6803F500730021184660
:10562000FFF7ECFE7B680122DA607B681B6803F5FC
:10563000906300211846FFF7E1FE7B681B6803F5C5
:1056400041734FF421711846FFF7D8FE7B681B6841
:10565000083301211846FFF7D1FE7B681B68012142
:105660001846FFF7CBFE00BF0837BD4680BD0000DF
:1056700080B582B000AF78607B680022DA607B681A
:105680000E4A93420DD07B681B68043301211846F3
:10569000FFF7B4FE7B681B680C3301211846FFF747
:1056A000ADFE7B681B6803F542734FF0FF3118466F
:1056B000FFF7A4FE00BF0837BD4680BD00010020F3
:1056C00080B5A8B000AF78603960184A07F10C03C4
:1056D000114690221846FAF76DFD0023C7F89C305A
:1056E00019E0D7F89C30DB00A0333B4453F8943CDE
:1056F0003A689A420AD1D7F89C30DB00A0333B4489
:1057000053F8902C7B689A6000230AE0D7F89C300D
:105710000133C7F89C30D7F89C30112BE1D96FF0DA
:1057200010031846A037BD4680BD00BF4069000089
:1057300080B586B000AFF860B9607A60FB681B0185
:105740002B4A13443B6100237B61BB68052B4AD87D
:1057500001A252F823F000BF7157000079570000F2
:10576000855700009F570000B7570000DF57000023
:105770003B697A685A6036E079683869FFF7A0FFBC
:10578000786130E03869FFF7EDFE3B691B681B0B61
:1057900003F03F030521184600F09EFC23E03B691F
:1057A0001B681B0B03F03F03184600F0A2FC38698E
:1057B000FFF75EFF17E03B69DB68002B0BD03B690E
:1057C0000022DA603B691B6803F21C5379681846B3
:1057D000FFF714FE07E06FF040037B6103E06FF01A
:1057E00008037B6100BF7B6918461837BD4680BD42
:1057F0000001002080B586B000AF78607B681B6830
:105800001B01184A13447B61174A07F1080392E809
:10581000030083E803007B691B6803F5A063042190
:105820001846FFF7EBFD7869FFF722FF7B691B68DD
:105830001B0B03F03F027B685A627B685A6A7B68E5
:105840001A627B691B681B0B03F03F0307F1080218
:1058500011461846FCF752FF38613B691846183765
:10586000BD4680BD00010020D069000080B487B033
:1058700000AFF860B9607A60FB687B61BB683B6130
:1058800007E03A69531C3B617B69591C79611278C6
:105890001A707B685A1E7A60002BF2D1FB6818469A
:1058A0001C37BD465DF8047B704780B400AF4FF0F5
:1058B00080430022C3F800214FF0804301221A6088
:1058C00000BF4FF08043D3F80031002BF9D000BF68
:1058D00000BFBD465DF8047B704780B483B000AF65
:1058E0000346FB71FB79642B01D96423FB71FB79BF
:1058F00018460C37BD465DF8047B704780B483B012
:1059000000AF0346FB710B4B0B4AC3F81C25094A39
:10591000FB79C2F82435074B0022C3F82C25054B30
:105920000122C3F8302500BF0C37BD465DF8047B6B
:10593000704700BF001000407469627580B400AF0A
:105940000E4B0022C3F810250C4B0822C3F8142577
:105950000A4B0B4AC3F81825084B0222C3F834251A
:10596000064B4FF6FF72C3F83C25044B054AC3F8BB
:10597000382500BFBD465DF8047B7047001000402D
:10598000200004002110010080B483B000AF034662
:10599000FB71FB79072B01D90723FB71FB79054AC2
:1059A000D256054BC3F80C2500BF0C37BD465DF839
:1059B000047B7047D86B00000010004080B400AF3B
:1059C0000B4B0C4AC3F80425094B2122C3F80022D3
:1059D000074B0022C3F80021054B0022C3F80C211D
:1059E000034B01225A6000BFBD465DF8047B70473F
:1059F000001000404C26002080B584B000AF7860D5
:105A00000B46FB701346BB70324B1B78DBB2013385
:105A10005A4203F0030302F0030258BF5342FB73E0
:105A20002D4B1B78DBB2FA7B9A420DD12A4B1B78A7
:105A3000DBB201335A4203F0030302F0030258BF02
:105A40005342DAB2244B1A70224B1B78DBB2194650
:105A5000FB78202B28BF2023D8B2204A0B461B01FD
:105A60000B445B00134402461A701A4B1B78DBB2DE
:105A70001A4613461B0113445B00184A1344581C72
:105A8000144B1B78DBB21946144A0B461B010B441E
:105A90005B0013441B78DBB21A467968FFF7E6FE19
:105AA0000C4B1B78DBB219460C4A0B461B010B440E
:105AB0005B0013442133BA781A70064AFB7B1370DB
:105AC000074B1B6801211846FDF7BCFB00BF1037D0
:105AD000BD4680BD4826002049260020C025002064
