:1000000000000220ADC2000085C0000095C00000C5
:10001000F5C0000005C1000015C10000000000008F
:1000200000000000000000000000000025C10000EA
:1000300035C1000000000000D1BF000019C200005F
:1000400045C1000045C1000045C1000045C1000098
:1000500045C1000045C1000045C1000045C1000088
:1000600045C1000045C1000045C1000045C1000078
:1000700045C1000045C1000045C1000045C1000068
:1000800045C1000045C1000045C1000045C1000058
:1000900045C1000045C1000045C1000045C1000048
:1000A00045C1000045C1000045C1000045C1000038
:1000B00045C1000045C1000045C1000045C1000028
:1000C00045C1000045C1000045C1000045C1000018
:1000D00045C1000045C1000045C1000045C1000008
:1000E00045C1000045C1000045C1000045C10000F8
:1000F00045C1000045C1000045C1000045C10000E8
:1001000080B500AF0BF02EF900BF80BD80B584B084
:1001100000AF78600BF016FCF86007F10B030121CB
:1001200018460BF0F5F8F8680BF0F2FBFB7A18466E
:100130001037BD4680BD80B586B000AF78607B6863
:100140007B6100233B610BF0FDFB0346FB6001215B
:1001500078690BF0DDF8012178690BF0AFF87B6965
:100160001B780D2B04D101210F480BF0A7F80EE0EE
:100170007B691B78032B03D14FF0FF333B6106E013
:100180007B6901337B613B6901333B61DFE77B695D
:1001900000221A70FB6818460BF0BAFB3B69184640
:1001A0001837BD4680BD00BFECC5000080B584B0E7
:1001B00000AF78607B68DBB2FB720BF0C3FB0346D9
:1001C000FB60FB7A0A2B03D1012109480BF076F87A
:1001D00007F10B03012118460BF070F8FB68184675
:1001E0000BF096FB002318461037BD4680BD00BFBC
:1001F000EDC5000080B584B000AF78607B68FB601F
:100200000BF0A0FB0346BB6006E0FB685A1CFA60DB
:100210001B781846FFF7CAFFFB681B78002BF4D148
:10022000BB6818460BF074FB002318461037BD4618
:1002300080BD00BF80B487B000AFF860B9601346DE
:10024000FB71FB799B10DBB203F01003FB75FB79AC
:1002500003F03F03FB7114E0FA79BB68B3FBF2F1E2
:1002600001FB02F29A1AFB7D1344FA68013AFA6024
:100270000E4AD25CFB681A70FB79BA68B2FBF3F3E2
:10028000BB60FB79BA689A42E6D2FA7DBB68134438
:10029000FA68013AFA60054AD25CFB681A70FB689A
:1002A00018461C37BD465DF8047B704700C6000049
:1002B00080B590B000AFF860B9607A603B60002311
:1002C0003B630FE397F82730252B07D03B6B002BC0
:1002D00040F008837B68013B3B6303E33B6B002BEF
:1002E00009D07A683B6BD31A591EFB68BA68386B21
:1002F000984700233B63002387F825307B685A1C0E
:100300007A601B7887F8273097F82730203B102B2E
:1003100048D801A252F823F079030000A503000099
:10032000A503000087030000A5030000A50300004B
:10033000A5030000A5030000A5030000A50300001D
:10034000A50300006B030000A50300005D0300008F
:10035000A5030000A50300009503000097F82530D1
:1003600043F0010387F825301BE097F8253043F070
:10037000020387F8253014E097F8253043F0040392
:1003800087F825300DE097F8253043F0080387F80B
:10039000253006E097F8253043F0100387F8253024
:1003A00000BFABE700BF97F827302A2B19D13B6875
:1003B0001A1D3A601B687B87B7F93A30002B09DABF
:1003C0007B8F5B429BB27B8797F8253043F001031C
:1003D00087F825307B685A1C7A601B7887F82730AD
:1003E0001EE000237B8713E07B8F1A4692001344A4
:1003F0005B009AB297F827309BB213449BB2303B14
:100400009BB27B877B685A1C7A601B7887F8273001
:1004100097F827302F2B03D997F82730392BE3D9BA
:100420004FF6FF733B8797F827302E2B40D17B6820
:100430005A1C7A601B7887F8273097F827302A2BC8
:1004400011D13B681A1D3A601B683B87B7F93830F9
:10045000002B01DA00233B877B685A1C7A601B78EB
:1004600087F827301EE000233B8713E03B8F1A46B6
:10047000920013445B009AB297F827309BB2134462
:100480009BB2303B9BB23B877B685A1C7A601B78DF
:1004900087F8273097F827302F2B03D997F8273084
:1004A000392BE3D997F8253023F0100387F825304E
:1004B000002387F8243097F82730682B03D097F86B
:1004C00027306C2B09D197F8273087F824307B68C8
:1004D0005A1C7A601B7887F827300A2387F8263061
:1004E0000023FB7407F114030E33BB6297F8273027
:1004F000002B00F06B81002BC0F26C81782B00F395
:100500006981582BC0F26681583B202B00F2628132
:1005100001A252F823F000BF9D050000D50700009E
:10052000D5070000D5070000D5070000D50700005B
:10053000D5070000D5070000D5070000D50700004B
:10054000D5070000AF0700009D050000D50700009B
:10055000D5070000D5070000D50700009D05000065
:10056000D5070000D5070000D5070000D50700001B
:10057000D50700009D05000037070000D5070000E3
:10058000D507000067070000D50700009D050000A3
:10059000D5070000D50700009D05000097F824301E
:1005A0006C2B05D13B681A1D3A601B68FB6316E093
:1005B0003B681A1D3A601B68FB6397F82430682B70
:1005C0000DD197F82730692B03D097F82730642B8B
:1005D00002D1FB6B1BB201E0FB6B9BB2FB6397F894
:1005E0002730583B202B00F2938001A252F823F0D1
:1005F000B7060000110700001107000011070000F6
:10060000110700001107000011070000110700008A
:10061000110700001107000011070000110700007A
:100620007506000011070000110700001107000007
:1006300011070000750600001107000011070000F7
:10064000110700001107000011070000CB06000091
:10065000110700001107000011070000110700003A
:10066000110700001107000011070000110700002A
:10067000C1060000FB6B002B05DAFB6B5B42FB63E2
:100680002D23FB7410E097F8253003F00203002BB4
:1006900002D02B23FB7407E097F8253003F0040306
:1006A000002B32D02023FB74B7F93A309BB2013BC8
:1006B0009BB27B872CE097F82630403387F82630B2
:1006C00097F82630083387F8263097F82630023B13
:1006D00087F8263097F8253003F00803002B16D052
:1006E000FB6B002B13D07A8F97F82630082B01D1A3
:1006F000012300E00223D31A9BB27B8797F82630B0
:1007000063F07F0387F8263001E000BF00E000BF00
:10071000FB6B002B03D1B7F93830002B08D097F8CA
:1007200026301A46F96BB86AFFF784FD034600E0ED
:10073000BB6AFB6253E03B681A1D3A601B68FB63AF
:10074000FB6B002B06D0902387F826307B8F023B73
:100750009BB27B8797F826301A46F96BB86AFFF789
:1007600069FDF8623BE03B681A1D3A601B68FB625A
:10077000FB6ABB62B7F93830002B0BDA02E0BB6AC8
:100780000133BB62BB6A1B78002BF8D126E0BB6A41
:100790000133BB623B8F013B9BB23B87B7F93830DB
:1007A000002B1BDBBB6A1B78002BF0D116E0BB6A69
:1007B000FB623B681A1D3A601A68FB6A013BFB62E8
:1007C000D2B2FB6A1A7000233B8708E07B68013BCA
:1007D0007B6087E07B68013B3B6383E000BFBA6AD4
:1007E000FB6AD31AFB863A8FFB8ED31A9BB23B87E8
:1007F000B7F93830002B04DDFA8E3B8F13449BB2DF
:10080000FB867A8FFB8ED31A9BB27B8797F82530B5
:1008100003F01103002B0DD104E0FB68BA6801213D
:100820003D4898477B8F013B9BB27B87B7F93A30B5
:10083000002BF2DAFB7C002B05D007F11300FB68DC
:10084000BA680121984797F92630002B17DAFB6820
:10085000BA6801213148984797F8263003F0100311
:10086000002B0CD097F8263003F04003002B01D06A
:100870002B4800E02B48FB68BA68012198473B8F62
:10088000FB86B7F93630002B0FDC97F8253003F0E4
:100890001103102B09D17B8FFB8600237B8704E09B
:1008A000FB68BA6801211D489847FB8E013B9BB24B
:1008B000FB86B7F93630002BF2DABA6AFB6AD11A36
:1008C000FB68BA68F86A984704E0FB68BA680121D7
:1008D000114898477B8F013B9BB27B87B7F93A3031
:1008E000002BF2DA7B685A1C7A601B7887F8273075
:1008F00097F82730002B7FF4E5AC3B6B002B07D03B
:100900007A683B6BD31A591EFB68BA68386B9847F4
:1009100000BF4037BD4680BDF0C50000F4C50000F3
:10092000F8C50000FCC5000080B584B000AFF860D9
:10093000B9607A607B68B3F900309AB2BB689BB249
:1009400013449BB21AB27B681A8006E0FB685A1CFB
:10095000FA601B781846FFF729FCBB68013BBB60B7
:10096000BB68002BF2DA00BF00BF1037BD4680BD68
:100970000FB480B582B000AF00237B8007F1140371
:100980007B60B91C7B683A690548FFF791FCB7F9B1
:10099000023018460837BD46BDE8804004B07047B5
:1009A0002909000080B485B000AFF860B9607A60B2
:1009B0007B68B3F900309AB2BB689BB213449BB218
:1009C0001AB27B681A8009E0FA68531CFB607B68E6
:1009D0005B68581C7968486012781A70BB68013BE4
:1009E000BB60BB68002BEFDA00BF00BF1437BD4609
:1009F0005DF8047B70470EB480B587B000AF7860B7
:100A000000233B827B687B6107F12803FB6007F1D1
:100A10001001FB687A6A0948FFF74AFCB7F9103001
:100A20001A467B68134400221A70B7F91030184632
:100A30001C37BD46BDE8804003B07047A5090000E3
:100A400080B584B000AF78600AF07CFFF8607B6806
:100A50001B685A1C7B681A607B681B68BB60F8685F
:100A60000AF056FFBB6818461037BD4680BD80B5FA
:100A700084B000AF78600AF065FFF8607B681B689F
:100A8000591E7A681160BB60F8680AF041FFBB68C4
:100A900018461037BD4680BD80B582B000AF786083
:100AA0007868FFF7CDFF0346002B07DD7B685B68A6
:100AB0004FF0FF320121184606F041FB00BF083716
:100AC000BD4680BD80B582B000AF78607868FFF722
:100AD000CEFF0346002B05DD7B685B6801211846CD
:100AE00006F056FA00BF0837BD4680BD80B58AB013
:100AF00000AF786039600123FB6000233B61012374
:100B00007B6107F108037B62164B3B620023FB61AC
:100B10000AE03A6A531C3B627B6A591C796212787C
:100B20001A70FB690133FB61FB69032BF1DD07F1EF
:100B30000803184606F062F9B861BB69002B01DAB8
:100B4000BB690AE07B68BA695A607B684FF0FF3284
:100B50001A607B683A689A60002318462837BD46B9
:100B600080BD00BF20C6000080B582B000AF7860B5
:100B70007B685B68002B04DD7B685B68184606F0C9
:100B8000B7F97B6800225A6000BF0837BD4680BDB8
:100B900080B584B000AF78600AF0D4FEF8607B685E
:100BA0001B685A1C7B681A60F8680AF0B1FE00BF27
:100BB0001037BD4680BD80B584B000AF78600AF0C4
:100BC000C1FEF8607B681B685A1E7B681A60F86873
:100BD0000AF09EFE00BF1037BD4680BD80B586B0CE
:100BE00000AF7860396001223B6802FA03F37B6151
:100BF0000AF0A8FE38617B681B687A691340FB60C5
:100C00007B681A687B691A437B681A6038690AF046
:100C10007FFEFB6818461837BD4680BD80B584B09E
:100C200000AF786039600AF08DFEF8607B681A6862
:100C300001213B6801FA03F3DB431A407B681A6029
:100C4000F8680AF065FE00BF1037BD4680BD80B56C
:100C50008AB002AFF860B9607A600122BB6802FA1C
:100C600003F3BB61FB6804331846FFF791FFFB6891
:100C7000B9681846FFF7B2FF0346002B02D10023E4
:100C8000FB6110E0FB68986807F114027B68009331
:100C900013462122B96902F0F1FBF861FB69002BD0
:100CA00000DBE4E700BFFB6804331846FFF783FF6F
:100CB000FB6918462037BD4680BD80B582B000AFC5
:100CC000786039604FF0FF3239687868FFF7BFFF0E
:100CD000034618460837BD4680BD80B584B000AFD6
:100CE0007860396001223B6802FA03F3FB607B689D
:100CF00039681846FFF792FF7B685B68002B07D0C6
:100D00007B689B68F968184602F0CCFA034600E05D
:100D10000023BB60BB6818461037BD4680BD80B558
:100D20008AB000AF7860396009233B6100237B61A2
:100D300007F10C037B62174B3B620023FB610AE067
:100D40003A6A531C3B627B6A591C796212781A70AA
:100D5000FB690133FB61FB69032BF1DD07F10C0338
:100D6000184602F0EFF9B8617B68BA699A60BB690E
:100D7000002B01DABB6909E07B6800225A607B68BE
:100D800000221A607B683A68DA6000231846283728
:100D9000BD4680BD28C6000080B584B000AF786035
:100DA0007B689B68002B02DC6FF010030EE07B6811
:100DB0009B68184602F026FAF860FB68002B01DAFF
:100DC000FB6803E07B6800229A6000231846103716
:100DD000BD4680BD80B582B000AF7860786803F012
:100DE000DDFA034618460837BD4680BD80B582B09F
:100DF00000AF786039603968786803F025FB0346F6
:100E000018460837BD4680BD80B582B000AF786017
:100E100039603968786803F034FB034618460837B0
:100E2000BD4680BD80B582B000AF7860786803F0C1
:100E30005CFB00BF0837BD4680BD80B400AF002317
:100E40001846BD465DF8047B7047F0B484B000AF2F
:100E5000F860B9607A60FC68BB68DDB27B68072B1C
:100E600012DC03E023465C1C2A461A707B685A1E7B
:100E70007A60002BF6DCFB682EE07B68013B7B6030
:100E800023465C1C2A461A70234603F00303002BFA
:100E9000F3D126462A462B461B021A432B461B0437
:100EA0001A432B461B0642EA030405E033461E1D87
:100EB0001C607B68043B7B607B68032BF6DC34465C
:100EC00006E023465C1C2A461A707B68013B7B6067
:100ED0007B68002BF5D1FB6818461037BD46F0BC87
:100EE0007047B0B485B000AFF860B9607A60FC6854
:100EF000BD6805E02A46551C23465C1C12781A7012
:100F00007B685A1E7A60002BF4DCFB6818461437A5
:100F1000BD46B0BC704790B482B000AF78607C68CA
:100F200000E001342378002BFBD17B68E31A1846DC
:100F30000837BD4690BC704790B482B000AF78606F
:100F400039607C6823465C1C3A6812781A703B68EA
:100F50005A1C3A601B78002BF4D17B68184608377E
:100F6000BD4690BC704790B484B000AFF860B960E3
:100F70007A60FC687B685A1E7A60002B01DCFB6893
:100F800015E023465C1CBA6812781A70BB685A1CBC
:100F9000BA601B78002BEDD103E023465C1C0022D5
:100FA0001A707B685A1E7A60002BF6DCFB681846C4
:100FB0001037BD4690BC704790B482B000AF7860E7
:100FC00039600DE07B685A1C7A601B7819463B68D3
:100FD0005A1C3A601B78CC1A002C01D0234609E039
:100FE0007B681B78002BEDD17B681B781A463B6829
:100FF0001B78D31A18460837BD4690BC704790B48A
:1010000082B000AF786039607C6800E001342378FA
:10101000002BFBD106E03B685A1C3A602246541C68
:101020001B7813703B681B78002BF4D100232370CE
:101030007B6818460837BD4690BC704780B400AF47
:10104000054B1B68002BCCBF01230023DBB21846E5
:10105000BD465DF8047B7047F425002080B500AFE5
:101060000AF063FC0346002B08D1FFF7E7FF0346B5
:10107000002B03D1064B1B68002B02D16FF0180325
:1010800003E0044B02221A600023184680BD00BF13
:101090001C1400201814002080B500AF0AF045FC95
:1010A0000346002B08D1FFF7C9FF0346002B03D1ED
:1010B0000A4B1B68002B02D16FF018030BE0084BA2
:1010C00000221A60054B1A68064B1B689A4201D031
:1010D0000AF070FF0023184680BD00BF1C140020DA
:1010E000181400202014002080B588B000AFF860EC
:1010F000B9607A603B600023FB61FFF79FFF034606
:10110000002B03D1304B1B68002B02D16FF018036A
:1011100056E0FFF793FF0346002B09D12A4B1B68CB
:10112000002B05D0FB68002B02D16FF0280347E0AD
:10113000FB68002B02DDFB68202B02DD6FF0110342
:101140003EE0FFF77BFF0346002B0CD11E4B1B68D4
:10115000002B08D01C4B1B689B68FA689A4202D18E
:101160006FF028032CE0FB68013B682202FB03F3CD
:10117000164A1344BB610AF0E5FB7861BB6993F83A
:101180002730002B03D16FF02903FB6105E03B689A
:101190007A68B968B8690AF0ADFD7B69002B0BD19C
:1011A000094B1A680A4B1B689A4205D0094B1B6809
:1011B000002B01D10AF0FEFE78690AF0A9FBFB6959
:1011C00018462037BD4680BD1C1400203415002071
:1011D000201400201814002080B588B000AFF860FB
:1011E000B9607A603B600023FB61FFF727FF03468D
:1011F000002B03D1304B1B68002B02D16FF018037A
:1012000056E0FFF71BFF0346002B09D12A4B1B6852
:10121000002B05D0FB68002B02D16FF0280347E0BC
:10122000FB68002B02DDFB68202B02DD6FF0110351
:101230003EE0FFF703FF0346002B0CD11E4B1B685B
:10124000002B08D01C4B1B689B68FA689A4202D19D
:101250006FF028032CE0FB68013B682202FB03F3DC
:10126000164A1344BB610AF06DFB7861BB6993F8C1
:101270002730002B03D16FF02903FB6105E03B68A9
:101280007A68B968B8690AF099FD7B69002B0BD1BF
:10129000094B1A680A4B1B689A4205D0094B1B6818
:1012A000002B01D10AF086FE78690AF031FBFB6958
:1012B00018462037BD4680BD1C1400203415002080
:1012C000201400201814002080B588B000AFF8600A
:1012D000B9607A600023FB61FFF7B0FE0346002B84
:1012E00003D13A4B1B68002B02D16FF0180369E061
:1012F000FFF7A4FE0346002B09D1344B1B68002BDB
:1013000005D0FB68002B02D16FF028035AE0FB6880
:10131000002B02DDFB68202B02DD6FF0110351E092
:10132000FFF78CFE0346002B0CD1284B1B68002BCB
:1013300008D0264B1B689B68FA689A4202D16FF06E
:1013400028033FE0FB68013B682202FB03F3204ACD
:101350001344BB61BB68002B0CDBBB68002B09DCB2
:10136000BB691A694FF48051BB6801FA03F313405B
:10137000002B02D16FF0100324E00AF0E3FA786149
:10138000BB6993F82730002B03D16FF02903FB6171
:1013900005E07A68B968B8690AF07AFDF8617B6996
:1013A000002B0BD1094B1A680A4B1B689A4205D0D7
:1013B000094B1B68002B01D10AF0FCFD78690AF08B
:1013C000A7FAFB6918462037BD4680BD1C140020D3
:1013D00034150020201400201814002080B588B097
:1013E00000AFF860B9607A600023FB61FFF726FE6A
:1013F0000346002B03D13A4B1B68002B02D16FF040
:10140000180369E0FFF71AFE0346002B09D1344B9D
:101410001B68002B05D0FB68002B02D16FF028035E
:101420005AE0FB68002B02DDFB68202B02DD6FF029
:10143000110351E0FFF702FE0346002B0CD1284BAD
:101440001B68002B08D0264B1B689B68FA689A42E1
:1014500002D16FF028033FE0FB68013B682202FBEA
:1014600003F3204A1344BB61BB68002B0CDBBB6851
:10147000002B09DCBB691A694FF48051BB6801FA83
:1014800003F31340002B02D16FF0100324E00AF0A5
:1014900059FA7861BB6993F82730002B03D16FF0BC
:1014A0002903FB6105E07A68B968B8690AF02EFD86
:1014B000F8617B69002B0BD1094B1A680A4B1B683A
:1014C0009A4205D0094B1B68002B01D10AF072FD2E
:1014D00078690AF01DFAFB6918462037BD4680BDC1
:1014E0001C140020341500202014002018140020A3
:1014F00080B483B000AF78607B687A681A607B68DC
:101500007A685A6000BF0C37BD465DF8047B7047AF
:1015100080B483B000AF78607B681B687A689A42B9
:101520000CBF01230023DBB218460C37BD465DF823
:10153000047B704780B483B000AF786039603B684B
:101540005A687B685A607B683A681A603B685B68D7
:101550007A681A603B687A685A6000BF0C37BD46EB
:101560005DF8047B704780B483B000AF78607B681F
:101570001B687A689A4209D07B685B687A6812684F
:101580001A607B681B687A6852685A6000BF0C3723
:10159000BD465DF8047B704780B485B000AF7860CD
:1015A0007B681B687A689A4201D100230BE07B6854
:1015B0001B68FB60FB681A687B681A60FB681B6825
:1015C0007A685A60FB6818461437BD465DF8047B9C
:1015D000704780B483B000AF78607B681B127B607B
:1015E0007B68002B02DD7B68082B02DD6FF01103A6
:1015F00000E0002318460C37BD465DF8047B7047B9
:1016000080B584B000AF7860114B1B68FB6015E0BB
:10161000FB68BB60BB681A7A7B681B789A420AD168
:10162000BB68083379681846FFF7C6FC0346002BF1
:1016300001D1BB6807E0FB681B68FB60FB68044ADC
:101640009342E5D1002318461037BD4680BD00BF48
:10165000A003002080B584B000AF78600F48FFF78A
:101660009BFFF860FB68002B01D1002311E0FB68B1
:101670000833092279681846FFF775FCFB68403388
:101680001846FFF735FFFB6805491846FFF752FF7C
:10169000FB6818461037BD4680BD00BFA803002078
:1016A000A003002080B582B000AF78607B68184648
:1016B000FFF759FF7B6805491846FFF73BFF7B683A
:1016C00000221A7200BF0837BD4680BDA803002063
:1016D000B0B588B000AFF860B9607A6001214F48BA
:1016E000FFF7EBFAF868FFF716FCB861BB69002B4F
:1016F00002D0BB69082B03DD6FF010037B6184E02F
:10170000BB68002B27D0BB68DB68002B03DBBB6802
:10171000DB68FF2B03DD6FF010037B6175E0BB68B6
:10172000DB68002B02DDBB690133BB61BB68DB6892
:101730000A2B02DDBB690133BB61BB68DB68642B2C
:1017400002DDBB690133BB61BB69082B03DD6FF0B0
:1017500010037B6159E000213048FFF7AEFAF868CA
:10176000FFF74EFFF861FB69002B11D1BB68002B1E
:1017700003D16FF029037B6143E0F868FFF76AFF4C
:10178000F861FB69002B03D16FF021037B6138E026
:10179000BB68002B14D0FB69BA6803F1140415462A
:1017A0000FCD0FC40FCD0FC495E8070084E80700E4
:1017B0007B68002B13D07B68194A12681A600EE010
:1017C000FB6940331846FFF7A3FE0346002B03D105
:1017D0006FF040037B6114E0F869FFF763FF0021BD
:1017E0000E48FFF77AFA01210C48FFF776FAFB69F9
:1017F0000C4A9B1ADB100C4A02FB03F301331B0259
:1018000008E000210548FFF768FA01210348FFF7C7
:1018100064FA7B6918462037BD46B0BD4C010020F4
:101820005C01002060010020398EE33880B582B071
:1018300000AF786000210848FFF73FFA7B68074A4D
:1018400012681A6000210448FFF747FA002318467F
:101850000837BD4680BD00BF4C0100205C01002060
:1018600080B485B000AF786039600DE0FB7A2F2B33
:1018700002D9FB7A392B0ED97B685A1C7A60FA7A26
:101880001A703B6801333B603B681B78FB72FB7A44
:10189000002BEBD100E000BF7B6800221A70002310
:1018A000FB60FB7A002B16D00CE0FA6813469B0015
:1018B00013445B001A46FB7A303B1344FB603B68E1
:1018C00001333B603B681B78FB72FB7A002BECD149
:1018D000FB680133FB60FB6818461437BD465DF8B2
:1018E000047B704780B588B000AFF860B9607A605B
:1018F000B968F868FFF720FB7B68002B34DD07F13F
:1019000010030B33FB61FB6900221A7002E0FB68D5
:101910000133FB60FB681B78002BF8D17B68013B2F
:101920007B607A68124B83FB02139910D317C91A94
:101930000B469B000B445B00D11ACBB2FA69013A0B
:10194000FA613033DAB2FB691A707B68084A82FBAD
:1019500003129210DB17D31A7B607B68002BE0D157
:10196000F969F868FFF74BFB00BF2037BD4680BD23
:101970006766666680B584B000AF78603960786865
:10198000FFF727FEF860FB68002B37DB00211E48BD
:10199000FFF793F97B681B121A461346DB001344CA
:1019A000DB00483B194A1344BB60BB681B7A002B21
:1019B00005D07B68DAB2BB681B6A9A4208DD6FF01B
:1019C0002903FB6000BF00210F48FFF786F916E0EE
:1019D000BB6808337A68D2B219463868FFF782FFCD
:1019E00000210948FFF779F9BB68084A9B1ADB1008
:1019F000074A02FB03F301331B0201E000BFFB684F
:101A000018461037BD4680BD4C0100206001002003
:101A1000398EE33880B588B000AF7860396007F15F
:101A2000080379681846FFF71BFFF861002120487A
:101A3000FFF743F907F108031846FFF7E1FDB86126
:101A4000BB69002B04D0BB691B6AFA699A4209DDA5
:101A50006FF029037B6100BF00211548FFF73DF9B6
:101A60007B6920E03B68002B0ED0BB69DA693B68DC
:101A70001A60BB695A6A3B685A60BB691A6A3B685C
:101A80009A603B68FA69DA6000210948FFF725F996
:101A9000BB69084A9B1ADB10074A02FB03F30133B8
:101AA0001A02FB69134418462037BD4680BD00BFAB
:101AB0004C01002060010020398EE33880B586B0EB
:101AC00000AF7860396000211F48FFF7F6F807F192
:101AD00008031A460021786800F02CFA78617B69C7
:101AE000002B27DBBB685B693B61BB689B69FB60C4
:101AF0003B68002B0ED03B69DA693B681A603B6992
:101B00005A6A3B685A603B691A6A3B689A603B684C
:101B1000FA68DA6000210C48FFF7DFF83B690B4AEE
:101B20009B1ADB100A4A02FB03F301331A02FB681B
:101B3000134405E000BF00210348FFF7CEF87B699E
:101B400018461837BD4680BD4C01002060010020BA
:101B5000398EE33880B58AB000AFF860B9607A603A
:101B6000BB68002B02DB7B68002B03DA6FF01003ED
:101B7000FB6149E000212748FFF79FF8BA687B68BE
:101B80001344BB6100233B62234B1B687B6227E04D
:101B90003A6ABB689A421DDB3A6ABB699A4219DA13
:101BA0007B6A7B617B69DA69FB681A607B695A6AC8
:101BB000FB685A607B691A6AFB689A60FB6803F1EC
:101BC0000C007B69083308221946FFF7CCF9FB6843
:101BD0001433FB603B6A01333B627B6A1B687B62A8
:101BE0007B6A0D4A9342D3D100210A48FFF775F86A
:101BF000BA683B6A9A4203DB6FF02903FB6103E09A
:101C00003A6ABB68D31A00E0FB6918462837BD461C
:101C100080BD00BF4C010020A003002080B588B02B
:101C200000AFF860B9607A60F868FFF7D2FCF8613D
:101C3000FB69002B56DBBB68002B03DA6FF0100347
:101C4000FB6150E000212A48FFF737F8FB681B12C0
:101C50001A461346DB001344DB00483B254A134475
:101C6000BB61BB691B7A002B05D0FB68DAB2BB698C
:101C70001B6A9A4208DD6FF02903FB6100BF002157
:101C80001B48FFF72AF82EE0BB69DB6B7B61BB6961
:101C90005B693B6100211648FFF71FF809F052FE0F
:101CA000154B1B68B3F9222092B2013292B212B2E4
:101CB0005A84002009F02CFE7B693A697968B8687B
:101CC0009847F86109F03EFE0B4B1B68B3F92220E0
:101CD00092B2013A92B212B25A84002009F018FE70
:101CE000FB6901E000BFFB6918462037BD4680BD97
:101CF0004C010020600100201C14002080B582B03F
:101D000000AF08233B600F48FFF7F2FB0E48FFF7D8
:101D1000EFFB0E4B7B600AE07B680B491846FFF730
:101D200009FC7B6800221A727B6848337B603B6841
:101D30005A1E3A60002BEFDC002318460837BD46D8
:101D400080BD00BFA0030020A80300206001002088
:101D500080B483B000AF00237B60054A7B681360CA
:101D60007B6818460C37BD465DF8047B704700BFA2
:101D70005C01002080B582B000AF16491648FEF71E
:101D8000CEFF78607B68002B15DBFFF7B7FF78602C
:101D90007B68002B11DB01F0D1F878607B68002BA9
:101DA0000DDBFFF7D5FF78607B68002B09DB01F0C6
:101DB00071F8002309E000BF04E000BF02E000BFAB
:101DC00000E000BF00F016F87B6818460837BD46F3
:101DD00080BD00BF30C600004C01002080B483B03D
:101DE00000AF00237B607B6818460C37BD465DF86A
:101DF000047B704780B582B000AF01F061F8FFF757
:101E0000EDFF786001F0E4F878600448FEF7C4FF65
:101E10007B6818460837BD4680BD00BF4C010020D6
:101E200080B483B000AF78607B687A681A607B68A2
:101E30007A685A6000BF0C37BD465DF8047B704776
:101E400080B483B000AF78607B681B687A689A4280
:101E50000CBF01230023DBB218460C37BD465DF8EA
:101E6000047B704780B483B000AF786039603B6812
:101E70005A687B685A607B683A681A603B685B689E
:101E80007A681A603B687A685A6000BF0C37BD46B2
:101E90005DF8047B704780B483B000AF78607B68E6
:101EA0001B687A689A4209D07B685B687A68126816
:101EB0001A607B681B687A6852685A6000BF0C37EA
:101EC000BD465DF8047B704780B485B000AF786094
:101ED0007B681B687A689A4201D100230BE07B681B
:101EE0001B68FB60FB681A687B681A60FB681B68EC
:101EF0007A685A60FB6818461437BD465DF8047B63
:101F0000704780B500AF00210848FEF7D6FE084BA9
:101F10001B68002B02D10648FFF782FF002103480F
:101F2000FEF7DBFE024B184680BD00BF4C010020CF
:101F3000000B002080B487B000AFF860B9607A6011
:101F4000FB68002B02DDFB68102B02DD6FF0110334
:101F50001EE0FB6803F18063013B9B010F4A1344C1
:101F60007B617B691B69002B02D16FF011030FE0CD
:101F7000BB68002B08D07B69DA69BB681340002B73
:101F800002D16FF01A0303E07B687A691A600023BC
:101F900018461C37BD465DF8047B7047B00300202F
:101FA00080B582B000AF786039607B681846FFF773
:101FB00072FF7B6808331846FFF76DFF3B68002B04
:101FC00004D07B6805491846FFF74CFF7B68002268
:101FD0001A6100BF0837BD4680BD00BFB0070020B2
:101FE00080B582B000AF78607B681846FFF753FF7A
:101FF0007B6805491846FFF735FF7B6800229A6029
:1020000000BF0837BD4680BDF80A002080B485B007
:1020100000AF786039607B681B6CFB6009E0FB688F
:102020009B693A689A4201D1012308E0FB681B686A
:10203000FB607B684033FA689A42F0D1002318466F
:102040001437BD465DF8047B704780B586B000AF9D
:10205000F860B9607A603B601A48FFF735FF786135
:102060007B69002B01D1002328E07A69FB684033AB
:1020700019461046FFF7F6FE7B6908333A681146A9
:102080001846FFF7EFFE7B69FA685A617B69BA6808
:102090009A617B697A68DA617B6920331846FFF7B9
:1020A000BFFE7B6900221A857B6900221A637B6967
:1020B00000225A637B6900221A617B69184618372F
:1020C000BD4680BDB007002080B48BB000AFF86083
:1020D000B9607A607B6803F00303002B02D16FF0D4
:1020E000100372E000237B617B69BB61BB69FB610C
:1020F000FB693B62FB681B6C7B6234E07B6A3B6183
:10210000BB68002B08D03B699B69002B04D03B695E
:102110009B69BA689A4223D13B69DB6903F00103EA
:10212000002B02D03B6A01333B623B69DB6903F061
:102130000203002B02D0FB690133FB613B69DB69C1
:1021400003F4A063002B02D0BB690133BB613B6980
:10215000DB6903F44073002B02D07B6901337B61A0
:102160007B6A1B687B62FB6840337A6A9A42C5D1FE
:102170007B6803F4A063002B05D03B6A002B02DDD3
:102180006FF0400321E07B6803F44073002B05D01F
:10219000FB69002B02DD6FF0400316E07B6803F063
:1021A0000103002B05D0BB69002B02DD6FF040035B
:1021B0000BE07B6803F00203002B05D07B69002B4A
:1021C00002DD6FF0400300E0002318462C37BD46C7
:1021D0005DF8047B704780B58EB000AF78603960E1
:1021E00007F10C0379681846FFF73AFBF862FFF72E
:1021F00088FEB862BB6A002B03D16FF018033B6303
:10220000ABE000215748FEF758FD07F10C031846D4
:10221000FFF7F6F978627B6A002B04D07B6A1B6AB1
:10222000FA6A9A4203DD6FF029033B6391E03A6852
:10223000F96A786AFFF748FF38633B6B002BC0F2FE
:1022400087807B6A9B6A7B637B6A5B693B62F96A16
:10225000786AFFF7DBFE0346002B07D07B6A9B6999
:1022600003F00103002B01D100237B63BB6A3A68B2
:10227000F96A786AFFF7E9FEF861FB69002B03D180
:102280006FF021033B6364E0374804F0B7FDB861A9
:10229000BB69002B03DA6FF004033B6353E0FB6977
:1022A000BA69DA6300212F48FEF717FD7B6B002B1C
:1022B0002ED009F047FB2D4B1B68B3F9222092B2B8
:1022C000013292B212B25A84002009F021FB7B6ADB
:1022D000274A9B1ADB10274A02FB03F301331A0239
:1022E000FB6AD0187B6B3A6A39689847386309F003
:1022F00029FB1E4B1B68B3F9222092B2013A92B21D
:1023000012B25A84002009F003FB3B6B002B10DB58
:1023100000211448FEF7D1FCFB6901221A6100215B
:102320001048FEF7DAFCFB69134A9B1A9B11013334
:1023300014E000BF00210B48FEF7BFFCFB69DB6B1C
:10234000184604F0D5FD0121F869FFF729FE00E0E9
:1023500000BF00210348FEF7C0FC3B6B184638372E
:10236000BD4680BD4C01002038C600001C14002072
:1023700060010020398EE338B003002090B589B0A9
:1023800000AF786000217648FEF797FC7B685B69B8
:10239000BB61BB699B6B7B61BB695B6B3B61BB6971
:1023A0005B69FB6005F000FF02467B685A637B684F
:1023B00000229A637B681B6B002B2EDD7B68DB6A37
:1023C000103BBB6009F0BEFA664B1B68B3F92220D4
:1023D00092B2013292B212B25A84002009F098FAF5
:1023E000BB68D8687B68D96A7B681A6B7C69FB68B4
:1023F000A04709F0A7FA5B4B1B68B3F9222092B201
:10240000013A92B212B25A84002009F081FA7B6834
:102410009B6B5A1C7B689A6342E07B681B6AFB617A
:1024200039E0FB69BB60BB68DB68002B2FD0BA6862
:10243000137F43F01003137709F084FA494B1B68AC
:10244000B3F9222092B2013292B212B25A84002021
:1024500009F05EFABB68D868BB6803F110017C69BB
:10246000FB680122A04709F06DFA3E4B1B68B3F9E7
:10247000222092B2013A92B212B25A84002009F09C
:1024800047FA7B689B6B5A1C7B689A6300E000BF2D
:10249000FB691B68FB617B682033FA699A42C0D1F3
:1024A00000212F48FEF719FC7B689B6B002B07DD92
:1024B0007B68DB6B4FF0FF320121184604F03FFED2
:1024C0007B6800225A6300212548FEF7F6FB37E0BF
:1024D0007B681B6ABB60BA68137F43F010031377F5
:1024E00000211F48FEF7F9FB09F02CFA1D4B1B6871
:1024F000B3F9222092B2013292B212B25A84002071
:1025000009F006FABB6803F110003C69FB684FF064
:10251000FF320121A04709F015FA124B1B68B3F9ED
:10252000222092B2013A92B212B25A84002009F0EB
:10253000EFF900210A48FEF7C0FBB868FFF750FD2D
:102540007B6820331846FFF77BFC0346002BBFD087
:1025500000210348FEF7C1FB00BF2437BD4690BDF4
:102560004C0100201C14002080B588B000AF7860BA
:1025700039600023BB617868FFF700FF002139480C
:10258000FEF79BFB7B685B697B617B689B693B61BA
:102590007B69DB6AFB617B695B69FB607B69324A53
:1025A0009B1ADB10314A02FB03F301331B023A6929
:1025B0001344BB607B68DB6B184604F099FC002178
:1025C0007868FFF7EDFC39697869FFF71FFD03466E
:1025D000002B0BD03B6823F001033B607B699B69B8
:1025E00003F00103002B01D10023FB6100211D48F2
:1025F000FEF773FBFB69002B21D009F0A3F91C4BFC
:102600001B68B3F9222092B2013292B212B25A84FC
:10261000002009F07DF9FB69FA683968B8689847C5
:10262000B86109F08FF9124B1B68B3F9222092B2FE
:10263000013A92B212B25A84002009F069F90021DD
:102640000848FEF73AFB7B680A491846FFF70AFC80
:1026500000210448FEF741FBBB6918462037BD4600
:1026600080BD00BF4C01002060010020398EE3389E
:102670001C140020B007002080B584B000AF786043
:10268000396000211248FEF718FB07F108031A46CB
:1026900000217868FFF74EFCF860FB68002B04DA35
:1026A00000210B48FEF719FB0CE0BB6800221A6101
:1026B00000210748FEF711FBBB6839681846FFF791
:1026C00053FFF860FB6818461037BD4680BD00BF59
:1026D0004C01002080B584B000AF78600B48FFF754
:1026E000F3FBF860FB68002B01D100230AE0FA68D5
:1026F0007B68203319461046FFF7B4FBFB687A6805
:102700009A60FB6818461037BD4680BDF80A002065
:1027100080B58CB000AFF860B9607A603B60002192
:102720006548FEF7CAFABB6813F5803F06DCBB6854
:10273000B3F1004F02D00023FB6206E0FB6B012BDC
:1027400001D1012300E00223FB6207F114031A46C2
:10275000F96AF868FFF7EEFBB862BB6A002BC0F2BB
:10276000A1807B695B697B627B6A1B6B3B627B6AD6
:102770005B69FB617B691846FFF7ACFFB861BB6919
:10278000002B03D16FF02103BB628CE0BB690022F8
:102790001A61BB6900225A617B6A484A9B1ADB10A6
:1027A000474A02FB03F301331A027B699B691A440F
:1027B000BB699A61FB6B1B015BB21B1159B2BA6911
:1027C000137F61F303031377BA69137F6FF3041365
:1027D0001377BB69BA681A62BB693A685A62BB6907
:1027E0007A689A62BB690022DA62BB6900221A63C6
:1027F00005F0DAFC0246BB69DA6000212E48FEF7DC
:102800006CFA09F09FF82F4B1B68B3F9222092B2A3
:10281000013292B212B25A84002009F079F8BB69F1
:1028200003F110003B6AFA69B96B9847B86209F086
:1028300089F8244B1B68B3F9222092B2013A92B274
:1028400012B25A84002009F063F800211A48FEF7FA
:1028500034FABB690022DA607B695B6B002B0CDD0C
:102860007B699A6B013A9A639B6B002B05D17B695C
:10287000DB6B0121184604F08BFBBB6A002B0CDBE1
:1028800000210D48FEF729FABB690F4A9B1A9B10DD
:102890000E4A02FB03F301330AE000BFB869FFF7F9
:1028A0009FFB00E000BF00210348FEF716FABB6A59
:1028B00018463037BD4680BD4C0100206001002025
:1028C000398EE3381C140020B8070020C54EECC434
:1028D00080B588B002AFF860B9607A603B600123D0
:1028E00001933B6A00933B687A68B968F868FFF720
:1028F0000FFF78617B6918461837BD4680BD80B5EB
:1029000088B002AFF860B9607A603B604FF0FF3387
:1029100000933B687A68B968F868FFF7D9FF786177
:102920007B69002B0FDB07F110034FF0FF320092A1
:102930003A6A7969F86800F077F878617B69002B6A
:1029400003DB3B6903E000BF00E000BF7B69184682
:102950001837BD4680BD80B588B002AFF860B96059
:102960007A603B60022301933B6A00933B687A687C
:10297000B968F868FFF7CCFE78617B6918461837AC
:10298000BD4680BD80B588B002AFF860B9607A609E
:102990003B604FF0FF3300933B687A68B968F86892
:1029A000FFF7D9FF78617B69002B0FDB07F110037C
:1029B0004FF0FF3200923A6A7969F86800F034F813
:1029C00078617B69002B03DB3B6903E000BF00E01B
:1029D00000BF7B6918461837BD4680BD80B485B0FE
:1029E00000AF786039607B68002B02DD7B68102BBC
:1029F00001DD00230FE07B68342202FB03F3343B4C
:102A0000084A1344FB60FB689B683A689A4201D00D
:102A1000002300E0FB6818461437BD465DF8047BD0
:102A2000704700BFB807002090B58FB000AFF860C6
:102A3000B9607A603B6005F0B7FB386200218E48D0
:102A4000FEF73BF907F110031A460021F868FFF77B
:102A500071FA78627B6A002BC0F202813B695B6984
:102A6000FB61FB695B6BBB61FB695B697B61BB689D
:102A7000002B42D13B691B6B002B03DC3B691B8D98
:102A8000002B03D06FF028037B62ECE03B6920331E
:102A90001846FFF7D5F90346002B03D06FF0290342
:102AA0007B62E0E03B691B6A7B630123BB627B6B5B
:102AB0003A6ADA607B6B10333B637B6B1B687B632A
:102AC0003B6920337A6B9A4208D07B6B03F110028A
:102AD0003B6B1A60BB6A0133BB62E8E700BF3B6B2C
:102AE00000221A603B691B6A10333B633B693A6BF7
:102AF000DA623B69BA6A1A6328E03B691946B8682A
:102B0000FFF76CFF78637B6B002B03D16FF0110331
:102B10007B62A8E03B691B6B002B03DC7B6BDB68F3
:102B2000002B03DD6FF028037B629CE07B6B3A6A2D
:102B3000DA607B6B10333B633B6B00221A6001232E
:102B4000BB623B691A8D013292B21A8500214A4854
:102B5000FEF7C3F808F0F6FE484B1B68B3F92220D5
:102B600092B2013292B212B25A84002008F0D0FE22
:102B7000BC697B69BA6CB96A386BA047F86208F027
:102B8000E1FE3E4B1B68B3F9222092B2013A92B2A9
:102B900012B25A84002008F0BBFEFB6A002B01DA57
:102BA000FB6A7B62FA6ABB6A9A4202DB6FF004033B
:102BB0007B6200213048FEF780F8BB68002B03D110
:102BC0003B6900221A6304E03B691A8D013A92B214
:102BD0001A853B695B6B002B2CDD3B699A6B013AD4
:102BE0009A639B6B002B25D13B69DB6B0121184657
:102BF00004F0CEF91EE03B6B103B7B63FB6A5A1E70
:102C0000FA62002B10D17B6B1D4A9B1A9B101D4A48
:102C100002FB03F30133BB603B6BDA697B681A602C
:102C20003B6B1A6A3B681A607B6B0022DA603B6B75
:102C30001B683B633B6B002BDDD17B6A002B11DBF8
:102C4000BB68342202FB03F3343B0D4A134418469D
:102C5000FFF7C6F900210848FEF73FF8BB6807E018
:102C600000BF00E000BF00210348FEF736F87B6A92
:102C700018463C37BD4690BD4C0100201C14002076
:102C8000B8070020C54EECC480B588B000AF7860AE
:102C900039600023BB61244B1B68FB613AE0FB6990
:102CA0007B617B69DB6903F0F003102B0CBF012310
:102CB0000023DBB23B613A683B699A4226D17B69CB
:102CC000DB6BFB6008F03EFE184B1B68B3F922205B
:102CD00092B2013292B212B25A84002008F018FE69
:102CE0007B695A69FB68002178689847B86108F0E9
:102CF00029FE0E4B1B68B3F9222092B2013A92B220
:102D000012B25A84002008F003FE00E000BFFB6905
:102D10001B68FB61FB69044A9342C0D1BB6918463A
:102D20002037BD4680BD00BFA00300201C1400203A
:102D300080B582B000AF01211548FDF7BEFF00212C
:102D40004FF0FF30FFF7A0FF786001214FF0FF3018
:102D5000FFF79AFF786000210D48FDF7AEFF0021D4
:102D60000B48FDF7BAFF01216FF00100FFF78CFF60
:102D7000786000216FF00100FFF786FF7860012185
:102D80000348FDF7AAFF7B6818460837BD4680BD9B
:102D90004C01002080B586B000AF786000237B61D5
:102DA000FFF7AFF8F860FB68002B03D16FF0180352
:102DB0003B6166E000213548FDF77FFF7B6803F04B
:102DC0000F03013B032B3FD801A252F823F000BFB1
:102DD000E12D0000012E00002B2E0000512E0000DE
:102DE0002B4B1B68002B08DD7B6803F40043002B92
:102DF00003D16FF040033B613DE001237B612AE09A
:102E0000234B1B686FF00042934203D16FF02A03FB
:102E10003B6130E01E4B1B6801331D4A1360FB68A9
:102E20009B685A1CFB689A6015E0FB689B68002B46
:102E300010DDFB689B685A1EFB689A60144B1B6888
:102E4000013B134A136005E06FF010033B6112E091
:102E500000BF00E000BF00210C48FDF73EFF7B698A
:102E6000002B05D0FFF764FF38613B69002B07DBBF
:102E7000074B1B6806E000210448FDF72EFF00E029
:102E800000BF3B6918461837BD4680BD4C01002085
:102E9000E825002080B500AF00210748FDF70DFFB1
:102EA0000648FEF7BDFF054B00229A60002102484C
:102EB000FDF713FF00BF80BD4C010020000B002078
:102EC00080B582B000AF1A4B1B68002B2CD00021BC
:102ED0001848FDF7F2FE184B1A68154B9B68D31A79
:102EE000154A1360124B00229A6012E0104B1B68C7
:102EF000083B7B607B6800221A6100210D48FDF7CA
:102F0000ECFE00217868FFF72FFB00210948FDF750
:102F1000D4FE0748FEF794FF0346002BE6D00021BD
:102F20000448FDF7DAFE00E000BF0837BD4680BD6B
:102F3000000B00204C010020E825002080B582B065
:102F400000AF1F48FEF76CFF00237B6011E01D4AB5
:102F50007B689B011344103300221A607B689B013D
:102F6000184A134416491846FEF77CFF7B68013364
:102F70007B607B680F2BEADD1348FEF751FF0023CF
:102F80007B6015E0114A7B68342101FB03F3134495
:102F9000083300221A607B68342202FB03F30B4AD9
:102FA000134409491846FEF75DFF7B6801337B60D7
:102FB0007B680F2BE6DD002318460837BD4680BD31
:102FC000B0070020B0030020F80A0020B807002056
:102FD00080B400AF00231846BD465DF8047B7047FF
:102FE00080B483B000AF78607B687A681A607B68D1
:102FF0007A685A6000BF0C37BD465DF8047B7047A5
:1030000080B483B000AF78607B681B687A689A42AE
:103010000CBF01230023DBB218460C37BD465DF818
:10302000047B704780B483B000AF786039603B6840
:103030005A687B685A607B683A681A603B685B68CC
:103040007A681A603B687A685A6000BF0C37BD46E0
:103050005DF8047B704780B485B000AF78607B6812
:103060001B687A689A4201D100230BE07B681B68D9
:10307000FB60FB681A687B681A60FB681B687A68EB
:103080005A60FB6818461437BD465DF8047B7047EC
:1030900080B400AF054B1B68002BCCBF012300237D
:1030A000DBB21846BD465DF8047B7047F42500206E
:1030B00080B485B000AFF860B9607A607B6803F0D7
:1030C0000103002B09D0FB685A69BB681340002B31
:1030D00014BF01230023DBB209E0FB685A69BB6817
:1030E0001340BA689A420CBF01230023DBB2184692
:1030F0001437BD465DF8047B704780B582B000AFE1
:103100000D48FFF76DFF0D4B3B600D4B7B600AE0F8
:103110007B6800229A607B6807491846FFF782FFA8
:103120007B6818337B607A683B689A42F0D300234F
:1031300018460837BD4680BD8C0C00208C0C002042
:103140000C0B002080B588B000AF78600923BB610C
:103150007B685A68BB69DB431340002B02D06FF0D9
:103160000A033EE008F0EEFB78612048FFF773FFAA
:1031700038613B69002B03D16FF02103FB611DE037
:103180003B691B4A9B1ADB101A4A02FB03F301330B
:10319000FB603B691846FFF723FF3B69FA689A60BA
:1031A0007B681A683B69DA607B685A683B691A6118
:1031B0007B689A683B695A61FB68FB617B69002BFD
:1031C0000BD10D4B1A680D4B1B689A4205D00C4B66
:1031D0001B68002B01D108F0EDFE786908F098FB20
:1031E000FB6918462037BD4680BD00BF8C0C00200F
:1031F0000C0B0020ABAAAAAA1C140020201400204B
:103200001814002080B586B000AF786000237B6181
:103210007B68002B02DD7B68102B02DD6FF0110351
:1032200032E07B685A1E13465B001344DB00184AE9
:1032300013443B6108F086FBF8603B699B68002BF8
:1032400003D16FF029037B610BE03B69184606F060
:1032500041FF3B690F491846FFF7E4FE3B69002236
:103260009A60FB68002B0BD10B4B1A680B4B1B6849
:103270009A4205D00A4B1B68002B01D108F09AFE38
:10328000F86808F045FB7B6918461837BD4680BDD5
:103290000C0B00208C0C00201C140020201400209B
:1032A0001814002080B58AB000AF78603960002320
:1032B0003B627B68002B02DD7B68102B02DD6FF028
:1032C00011036AE07B685A1E13465B001344DB005F
:1032D000344A1344FB6108F035FBB861FB699B6815
:1032E000002B03D16FF029033B6243E0FB695A696D
:1032F0003B681A43FB695A61FB691B687B6233E0D8
:103300007B6A7B617B6A1B687B627B691B6C3B61B0
:103310007B695B6CFB60FA683969F869FFF7C8FE86
:103320000346002B20D07B699B6CFA6952691A60B6
:10333000786906F01AFEFB6803F02003002B0AD020
:10334000FB695A693B69DB431A40FB695A61FB69B7
:103350005B69002B0DD0FB6803F01003002B03D03A
:10336000FB6900225A6105E0FB697A6A9A42C7D17B
:1033700000E000BFBB69002B0BD10B4B1A680B4B55
:103380001B689A4205D00A4B1B68002B01D108F03C
:1033900011FEB86908F0BCFA3B6A18462837BD46EA
:1033A00080BD00BF0C0B00201C1400202014002046
:1033B0001814002080B586B000AF78603960002313
:1033C0007B617B68002B02DD7B68102B02DD6FF0D8
:1033D00011032CE07B685A1E13465B001344DB008C
:1033E000154A13443B6108F0ADFAF8603B699B68ED
:1033F000002B03D16FF029037B6105E03B695A691B
:103400003B681A403B695A61FB68002B0BD10B4BA0
:103410001A680B4B1B689A4205D00A4B1B68002B9D
:1034200001D108F0C7FDF86808F072FA7B69184608
:103430001837BD4680BD00BF0C0B00201C140020B7
:10344000201400201814002080B584B000AF7860EC
:1034500039607B681B6B5A1E13465B001344DB000C
:10346000054A1344FB607968F86806F097FE00BFD0
:103470001037BD4680BD00BF0C0B002080B588B062
:1034800000AFF860B9607A603B6000237B61FB6845
:10349000002B02DDFB68102B02DD6FF01103A3E0AF
:1034A000BB68002B02D16FF010039DE07B6823F016
:1034B0003103002B02D06FF0100395E0BB6AB3F12B
:1034C000FF3F02DA6FF010038EE0494B1B68002BC0
:1034D0000DD1FFF7DDFD0346002B08D1454B1B68DE
:1034E000002B04D008F021FA0346002B02D06FF025
:1034F000180379E0FB685A1E13465B001344DB0097
:103500003D4A1344FB6108F01DFAB861FB699B68F2
:10351000002B03D16FF029037B6152E0FB691B692B
:1035200003F00803002B0AD1FB691846FFF768FD7A
:103530000346002B03D16FF028037B6141E07A68DA
:10354000B968F869FFF7B4FD0346002B18D0FB6992
:103550005A693B681A607B6803F02003002B06D091
:10356000FB695A69BB68DB431A40FB695A617B6897
:1035700003F01003002B24D0FB6900225A6120E0E5
:10358000FB691B6903F00103002B01D01B4A00E01B
:103590001B4A184B1B68DA62164B1B6807F11402B2
:1035A000DA63144B1B68BA681A64124B1B687A689A
:1035B0005A64104B1B683A689A64B96AF86906F055
:1035C000B7FDBB69002B0BD10A4B1A680D4B1B686A
:1035D0009A4205D0064B1B68002B01D108F0EAFC8B
:1035E000B86908F095F97B6918462037BD4680BD5B
:1035F000181400201C1400200C0B002054C60000DE
:1036000048C600002014002080B586B000AF786066
:10361000396000237B617B68002B02DD7B68102B07
:1036200002DD6FF0110335E07B685A1E13465B0024
:103630001344DB00194A13443B6108F083F9F86036
:103640003B699B68002B03D16FF029037B610EE07F
:103650003B69DA683B681A603B69184606F055FD1D
:1036600002463B685A603B695A693B689A60FB684E
:10367000002B0BD10A4B1A680A4B1B689A4205D0E3
:10368000094B1B68002B01D108F094FCF86808F086
:103690003FF97B6918461837BD4680BD0C0B0020EA
:1036A0001C140020201400201814002080B586B0BF
:1036B00000AF786039607B682F2B02D96FF0100360
:1036C00033E03B68002B0FD03B681B6823F00103FD
:1036D000002B02D06FF00A0327E03B681B687B6178
:1036E0003B685B683B6103E000237B6100233B6137
:1036F00008F028F9F8607B683A697969184608F09B
:1037000095FDB860FB68002B0BD10A4B1A680A4B79
:103710001B689A4205D0094B1B68002B01D108F0A9
:1037200049FCF86808F0F4F8BB6818461837BD463D
:1037300080BD00BF1C14002020140020181400209D
:1037400080B500AF08F0A2FD00BF80BD80B483B09B
:1037500000AF78607B687A681A607B687A685A6024
:1037600000BF0C37BD465DF8047B704780B483B062
:1037700000AF78607B681B687A689A420CBF0123AF
:103780000023DBB218460C37BD465DF8047B70475A
:1037900080B483B000AF786039603B685A687B685A
:1037A0005A607B683A681A603B685B687A681A609E
:1037B0003B687A685A6000BF0C37BD465DF8047BF1
:1037C000704780B483B000AF78607B681B687A680C
:1037D0009A4209D07B685B687A6812681A607B68D5
:1037E0001B687A6852685A6000BF0C37BD465DF8A6
:1037F000047B704780B485B000AF78607B681B683D
:103800007A689A4201D100230BE07B681B68FB6059
:10381000FB681A687B681A60FB681B687A685A60E4
:10382000FB6818461437BD465DF8047B704780B4CA
:1038300083B000AF786039600BE001223B689A40AA
:103840007B681340002B01D03B6806E03B680133E6
:103850003B603B681F2BF0DD202318460C37BD462C
:103860005DF8047B704780B483B000AF78607B68FC
:10387000D3F80C31002B03D07B68D3F80C3105E072
:103880007B681B687A68DB0013445B6818460C375A
:10389000BD465DF8047B704780B584B000AF7860AA
:1038A00039603B6893F82630FB6038687A68FB68BB
:1038B000DB0013445B681946FFF76AFF7B68D3F8A7
:1038C00008210121FB6801FA03F31A437B68C3F85E
:1038D00008213B6893F8283003F00203DBB2002B89
:1038E00003D07B683A68C3F80C217B681B68FA68D0
:1038F0009A4202DA7B68FA681A6000BF1037BD4648
:1039000080BD80B584B000AF786039603B6893F8C3
:103910002630FB607B68D3F80C313A689A4203D1B9
:103920007B680022C3F80C213B681846FFF749FF6B
:103930003B6893F8283003F00103DBB2002B07D07B
:103940003A6892F828306FF3000382F8283029E0B3
:10395000FB68DB007A68134404331846FFF706FF60
:103960000346002B1BD07B68D3F808210121FB689C
:1039700001FA03F3DB431A407B68C3F808217B6834
:103980001B68FA689A420CD17B68D3F80831F96851
:103990001846FFF74CFF02467B681A6002E000BF42
:1039A00000E000BF1037BD4680BD80B584B000AFD9
:1039B000786007F0C7FFB8602C4B1B6893F828307D
:1039C000C3F34003DBB2FB60FB68002B33D17B68A1
:1039D0001B68002B13D17B681846FFF7B7FE012345
:1039E000FB60224B1A6892F8283043F0020382F8F9
:1039F00028301E4B1B681E4AC2F80C311BE01B4BC3
:103A00001B6819461A48FFF77CFF184B1A6892F892
:103A1000283043F0010382F82830144B1B681A4603
:103A20007B6819461046FFF7B3FE1148FFF71BFFEE
:103A30000346104A1360BB68002B0BD10B4B1A686E
:103A40000C4B1B689A4205D00B4B1B68002B01D115
:103A500008F0B0FAB86807F05BFFFB68002B00D1F4
:103A6000A7E700BF1037BD4680BD00BF1C14002073
:103A700024140020201400201814002080B584B0E5
:103A800000AF786007F05EFFF860234B1A6892F889
:103A900028306FF3410382F82830204B0022C3F80E
:103AA0000C217B681846FFF7A5FEB860BB68002BA9
:103AB00003D17B6800221A6011E0BA6892F82830BE
:103AC0006FF3000382F82830BA6892F8283043F088
:103AD000020382F82830B9681048FFF7DDFE0F486E
:103AE000FFF7C1FE03460E4A1360FB68002B0BD1A3
:103AF000094B1A680A4B1B689A4205D0094B1B6890
:103B0000002B01D108F056FAF86807F001FF00BF5A
:103B10001037BD4680BD00BF1C14002024140020B7
:103B2000201400201814002080B483B000AF786007
:103B30007B687A681A607B687A685A6000BF0C37C5
:103B4000BD465DF8047B704780B483B000AF7860F9
:103B50007B681B687A689A420CBF01230023DBB2A2
:103B600018460C37BD465DF8047B704780B483B0BF
:103B700000AF786039603B685A687B685A607B6840
:103B80003A681A603B685B687A681A603B687A68D2
:103B90005A6000BF0C37BD465DF8047B704780B4A7
:103BA00085B000AF78607B681B687A689A4201D163
:103BB00000230BE07B681B68FB60FB681A687B686E
:103BC0001A60FB681B687A685A60FB6818461437ED
:103BD000BD465DF8047B704780B400AF054B1B68A1
:103BE000002BCCBF01230023DBB21846BD465DF895
:103BF000047B7047F425002080B485B000AF786066
:103C000039603B68FB6007E0BB685A687B685B68AB
:103C10009A4208DCBB68FB60FB681B68BB60BB6842
:103C2000002BF1D100E000BF7B68BA681A60FB6826
:103C30007A681A6000BF1437BD465DF8047B704790
:103C400080B582B000AF0E48FFF76EFF0D4B3B60B2
:103C50000D4B7B600AE07B6800229A607B68084914
:103C60001846FFF783FF7B681C337B607A683B68EC
:103C70009A42F0D3002318460837BD4680BD00BFE6
:103C8000740D0020740D0020940C002080B588B0C5
:103C900000AF78600323BB617B685A68BB69DB4374
:103CA0001340002B02D06FF00A033DE007F04AFEFC
:103CB00078611F48FFF773FF38613B69002B03D120
:103CC0006FF02103FB611CE03B691A4A9B1A9B10B1
:103CD000194A02FB03F30133FB603B691846FFF707
:103CE00023FF3B69FA689A607B681A683B69DA606F
:103CF0007B685A683B691A613B6900225A61FB681C
:103D0000FB617B69002B0BD10C4B1A680C4B1B68B9
:103D10009A4205D00B4B1B68002B01D108F04AF9E1
:103D2000786907F0F5FDFB6918462037BD4680BD70
:103D3000740D0020940C0020B76DDBB61C1400201D
:103D4000201400201814002080B586B000AF7860E1
:103D500000237B617B68002B02DD7B68082B02DD82
:103D60006FF0110332E07B685A1E1346DB009B1A8A
:103D70009B00184A13443B6107F0E4FDF8603B697F
:103D80009B68002B03D16FF029037B610BE03B693B
:103D9000184606F09FF93B690F491846FFF7E6FE03
:103DA0003B6900229A60FB68002B0BD10B4B1A6811
:103DB0000B4B1B689A4205D00A4B1B68002B01D1A4
:103DC00008F0F8F8F86807F0A3FD7B691846183783
:103DD000BD4680BD940C0020740D00201C140020F2
:103DE000201400201814002080B586B000AF786041
:103DF000396000237B617B68002B02DD7B68082B28
:103E000002DD6FF0110365E07B685A1E1346DB008C
:103E10009B1A9B00314A13443B6107F093FDF86005
:103E20003B699B68002B03D16FF029037B613EE067
:103E30003B691B6903F00203002B07D03B685B68FA
:103E4000002B03DC6FF010037B6130E03B69184608
:103E5000FFF77AFE0346002B0AD13B691B68BB6063
:103E6000BB681B6C3A681A60B86806F07EF81EE002
:103E70003B691B6903F00203002B06D03B69143336
:103E800019463868FFF7B8FE11E03B6800221A6057
:103E90003B695B69002B03D13B693A685A6103E0D7
:103EA0003B699B693A681A603B693A689A61FB68AA
:103EB000002B0BD10A4B1A680A4B1B689A4205D09B
:103EC000094B1B68002B01D108F074F8F86807F063
:103ED0001FFD7B6918461837BD4680BD940C002035
:103EE0001C140020201400201814002080B584B079
:103EF00000AF786039607B681B6B5A1E1346DB008D
:103F00009B1A9B00054A1344FB607968F86806F029
:103F100045F900BF1037BD4680BD00BF940C00209E
:103F200080B588B000AFF860B9607A6000237B612B
:103F3000FB68002B02DDFB68082B02DD6FF011032C
:103F400069E07B68B3F1FF3F02DA6FF0100362E0D3
:103F5000334B1B68002B0DD1FFF73EFE0346002BB1
:103F600008D1304B1B68002B04D007F0DEFC034661
:103F7000002B02D06FF018034DE0FB685A1E134669
:103F8000DB009B1A9B00284A1344FB6107F0DAFC14
:103F9000B861FB699B68002B03D16FF029037B613B
:103FA00026E0FB695B69002B09D0FB695A69BB6895
:103FB0001A60BB681B681A68FB695A6118E0FB69E4
:103FC0001B6903F00103002B01D0184A00E0184AD6
:103FD000144B1B68DA62134B1B6807F11402DA6397
:103FE000104B1B68BA681A647968F86906F0A0F883
:103FF000BB69002B0BD10B4B1A680E4B1B689A4206
:1040000005D0074B1B68002B01D107F0D3FFB8691F
:1040100007F07EFC7B6918462037BD4680BD00BF97
:10402000181400201C140020940C00206CC6000002
:1040300060C600002014002080B586B000AF786014
:10404000396000237B617B68002B02DD7B68082BD5
:1040500002DD6FF0110335E07B685A1E1346DB006A
:104060009B1A9B00194A13443B6107F06BFCF860F4
:104070003B699B68002B03D16FF029037B610EE045
:104080003B69DA683B681A603B69184606F03DF800
:1040900002463B685A603B695A693B689A60FB6814
:1040A000002B0BD10A4B1A680A4B1B689A4205D0A9
:1040B000094B1B68002B01D107F07CFFF86807F063
:1040C00027FC7B6918461837BD4680BD940C00203C
:1040D0001C140020201400201814002080B483B089
:1040E00000AF78607B687A681A607B687A685A608B
:1040F00000BF0C37BD465DF8047B704780B483B0C9
:1041000000AF786039603B685A687B685A607B68AA
:104110003A681A603B685B687A681A603B687A683C
:104120005A6000BF0C37BD465DF8047B704780B411
:1041300083B000AF78607B681B687A689A4209D0C8
:104140007B685B687A6812681A607B681B687A68AB
:1041500052685A6000BF0C37BD465DF8047B70475B
:1041600080B485B000AF786039607B680C33FB6049
:104170007B681B68002B00DA03339B101A463B68F0
:1041800093422BDD0023BB6010E0FB6808335B68C3
:10419000BB60BA683B689A4208DCBA683B689A42DE
:1041A00002DAFB681B6824E0FB6822E0FB685B68BE
:1041B000FB607B680C33FA689A42E6D1BA683B68C8
:1041C0009A4202DBFB681B6813E0FB6811E0FB68A6
:1041D00008335B681A463B68934208DDFB681B683E
:1041E000FB607B680C33FA689A42F0D100E000BFB4
:1041F000FB6818461437BD465DF8047B704780B5F0
:1042000084B000AF786039603B681A683B68083357
:10421000D31AFB60F9687868FFF7A2FFB8603B68C3
:104220005B6823F001031A463B685A607B680C33D5
:10423000BA689A4227D0BB6808335B681A46FB68A5
:10424000934220D1BB6803F108023B681033126827
:104250001A60BB6808333A6810321A603B68103342
:10426000BA6808325A603B6810331B68002B05D0CF
:104270003B6810331B683A6810325A603B68083359
:1042800000221A600EE03B680833B9681846FFF751
:1042900035FF3B68103300221A603B681033FA6820
:1042A0005A6000BF00BF1037BD4680BD80B582B0E8
:1042B00000AF78607B681B68002B15D17B6803F129
:1042C00008027B6808335B6812681A607B680833F1
:1042D0001B68002B20D07B6803F108027B68083341
:1042E0001B6852685A6017E07B6808331B68002B14
:1042F0000FD07B6808331B68083B79681846FFF7C6
:10430000FDFE7B6803F108027B6808331B68526876
:104310005A607868FFF70BFF00BF0837BD4680BDC5
:1043200080B483B000AF786039603B687A685A60C7
:104330007B681A683B681A607B681B685B6803F0DF
:1043400001023B681A437B681B685A607B683A68C5
:104350001A6000BF0C37BD465DF8047B704780B41F
:1043600083B000AF78607B685B6823F001031A4676
:104370007B681B6813607B681B685B6803F0010245
:104380007B685B6823F001031A437B681B685A60F3
:1043900000BF0C37BD465DF8047B704780B586B022
:1043A00000AF78607B68002B01DC002345E07B6870
:1043B0000F2B02D810237B6004E07B68073323F0C7
:1043C00007037B6007F0BEFA38611E4B1B687968F3
:1043D0001846FFF7C5FE78611A4B1B680C337A69E3
:1043E0009A4202D100237B6123E07869FFF75EFFE8
:1043F0007B69083BFB607B6908335B681A467B6816
:10440000D31A172B0ED97B680833FA681344BB60A4
:10441000B968F868FFF784FF0A4B1B68B96818464B
:10442000FFF7EDFEFB685B6843F001031A46FB688B
:104430005A60386907F06CFA7B6918461837BD4630
:1044400080BD00BF7C0D002080B584B000AF7860D7
:1044500039607B683A6802FB03F3FB60F868FFF79A
:104460009DFFB860BB68002B01D1002305E0FA680E
:104470000021B868FCF7E9FCBB6818461037BD4658
:1044800080BD80B586B000AF786039603B68002B96
:1044900008D03868FFF782FF78617B69002B03D171
:1044A00000231EE000237B617B68002B18D07B6912
:1044B000002B12D07B68083B3B613B691A683B6963
:1044C0000833D31AFB603A68FB689342A8BF1346CF
:1044D0001A4679687869FCF704FD786800F005F8F9
:1044E0007B6918461837BD4680BD80B584B000AFE3
:1044F000786007F027FAB8607B68083BFB60FB68D0
:104500005B6823F001031A46FB685A60FB681B686E
:104510005B6803F00103002B0AD1FB681B680833BA
:104520001846FFF7C3FEFB681B681846FFF717FF26
:10453000FB685B685B6803F00103002B0CD1FB6830
:104540005B68FB60FB6808331846FFF7AFFEFB684B
:104550001B681846FFF703FF064B1B68F9681846EF
:10456000FFF74DFEB86807F0D3F900BF1037BD461E
:1045700080BD00BF7C0D002080B500AF064B1B68DE
:1045800004331846FFF7AAFD034B1B680C3318468B
:10459000FFF7A4FD00BF80BD7C0D002080B582B078
:1045A00000AF2E4B1B68033323F003031A462B4B3B
:1045B0001A602A4B1B682A4A1360284B1B68143365
:1045C0001A46264B1A60254B1B68073323F0070356
:1045D0001A46224B1A60214B1B687B60214B1B68DB
:1045E0001A461E4B1B68D31AA3F110021C4B1B6802
:1045F0001A601C4B1B68194A1360FFF7BDFF184B6C
:104600001B681B6808337A6813443B60144B1B68B3
:10461000043339681846FFF783FE114B1B680433D7
:1046200079681846FFF77CFE3B685B6843F001033E
:104630001A463B685A600A4B1B689B6843F00102AC
:10464000074B1B689A60064B1B6879681846FFF792
:10465000D6FD002318460837BD4680BDF82500204A
:104660007C0D0020FC25002080B483B000AF786072
:104670007B687A681A607B687A685A6000BF0C377A
:10468000BD465DF8047B704780B483B000AF7860AE
:104690007B681B687A689A420CBF01230023DBB257
:1046A00018460C37BD465DF8047B704780B483B074
:1046B00000AF786039603B685A687B685A607B68F5
:1046C0003A681A603B685B687A681A603B687A6887
:1046D0005A6000BF0C37BD465DF8047B704780B45C
:1046E00085B000AF78607B681B687A689A4201D118
:1046F00000230BE07B681B68FB60FB681A687B6823
:104700001A60FB681B687A685A60FB6818461437A1
:10471000BD465DF8047B704780B400AF054B1B6855
:10472000002BCCBF01230023DBB21846BD465DF849
:10473000047B7047F425002080B483B000AF78601C
:104740007B6800221A6000BF0C37BD465DF8047B11
:10475000704780B483B000AF78607B685B6A7A682A
:10476000D269134418460C37BD465DF8047B704788
:1047700080B582B000AF1048FFF776FF0F4B3B606B
:104780000F4B7B600FE07B6800229A607B683033C0
:104790001846FFF7D1FF7B6807491846FFF786FFE9
:1047A0007B6838337B607A683B689A42EBD300239E
:1047B00018460837BD4680BD400F0020400F00203E
:1047C000800D002080B588B000AF786040F22133C2
:1047D000BB617B685A68BB69DB431340002B02D086
:1047E0006FF00A039DE07B689B68002B02DC6FF092
:1047F000100396E07B68DB68002B02DC6FF010038F
:104800008FE04A4B1B68002B0DD1FFF785FF034655
:10481000002B08D1464B1B68002B04D007F085F80D
:104820000346002B02D06FF018037AE07B68DB6848
:10483000033323F003037B617B689A687B6902FB87
:1048400003F33B617B685B6803F02003002B0BD014
:104850007B68DB687A699A4202D06FF0100360E0EF
:104860007B681B69FB6109E03869FFF797FDF86118
:10487000FB69002B02D16FF0200352E007F062F8D1
:104880002C48FFF72CFFF860002007F041F8FB6888
:10489000002B0BD17B685B6803F02003002B02D157
:1048A000F869FFF722FE6FF021033AE0FB6830332E
:1048B0001846FFF77AF8FB681F4A9B1ADB101F4A5D
:1048C00002FB03F30133BB60FB681846FFF7CCFE25
:1048D0007B681A68FB68DA607B685A68FB681A6153
:1048E0007B689A68FB681A62FB681A6AFB685A61FF
:1048F000FB687A699A61FB683A69DA61FB68FA6970
:104900005A62FB685A6AFB689A62FB680022DA62A4
:10491000FB68BA689A60FB6830331846FFF7AEF858
:10492000BB6818462037BD4680BD00BF1814002064
:104930001C140020400F0020800D0020B76DDBB656
:1049400080B586B000AF786000237B6100233B61B7
:104950000023FB607B68002B02DD7B68082B02DDF7
:104960006FF0110352E02B4B1B68002B0DD1FFF7AA
:10497000D3FE0346002B08D1274B1B68002B04D025
:1049800006F0D3FF0346002B02D06FF018033DE082
:104990007B685A1E1346DB009B1ADB001F4A134438
:1049A000BB60BB6830331846FEF7FFFFBB689B68EF
:1049B000002B03D16FF02903FB6016E006F0C2FF65
:1049C000BB685B6A7B61BB681B693B61BB6818465F
:1049D00005F080FBBB6812491846FFF767FEBB680D
:1049E00000229A60002006F093FFBB68303318461F
:1049F000FFF744F87B69002B07D03B6903F02003E5
:104A0000002B02D17869FFF770FDFB681846183754
:104A1000BD4680BD181400201C140020800D00200D
:104A2000400F002080B584B000AF786039607B68AB
:104A30001B6B5A1E1346DB009B1ADB00054A13440E
:104A4000FB607968F86805F0A9FB00BF1037BD4628
:104A500080BD00BF800D002080B588B000AFF86039
:104A6000B9607A6000233B61FB68002B02DDFB68C4
:104A7000082B02DD6FF0110390E07B68B3F1FF3F7C
:104A800002DA6FF0100389E0464B1B68002B0DD152
:104A9000FFF742FE0346002B08D1434B1B68002B57
:104AA00004D006F042FF0346002B02D06FF018033B
:104AB00074E0FB685A1E1346DB009B1ADB003B4A7E
:104AC0001344FB61FB6930331846FEF76EFFFB6948
:104AD0009B68002B03D16FF029033B6122E0FB6947
:104AE0001B6A002B25DDFB69DB6A002B0AD0FB6902
:104AF000DB6ABB61BB691A68FB69DA62BB68BA69C9
:104B00001A600AE0FB699A6ABB681A60FB699B6AD3
:104B1000FA6992691A44FB699A62FB691B6A5A1E18
:104B2000FB691A62FB6930331846FEF7A7FF3B6941
:104B300034E000BF06F006FF7861FB691B6903F0F3
:104B40000103002B01D01A4A00E01A4A164B1B68D9
:104B5000DA62154B1B6807F11002DA63124B1B680F
:104B6000BA681A647968F86905F0E2FAFB693033CB
:104B70001846FEF783FF7B69002B0BD10A4B1A689E
:104B80000D4B1B689A4205D0064B1B68002B01D1C8
:104B900007F010FA786906F0BBFE3B69184620372B
:104BA000BD4680BD181400201C140020800D00207C
:104BB00084C6000078C600002014002080B586B0AE
:104BC00000AF7860396000237B617B68002B02DDD9
:104BD0007B68082B02DD6FF0110375E03C4B1B680E
:104BE000002B0DD1FFF798FD0346002B08D1394B60
:104BF0001B68002B04D006F098FE0346002B02D061
:104C00006FF0180360E07B685A1E1346DB009B1AA6
:104C1000DB00314A13443B613B6930331846FEF7F1
:104C2000C4FE3B699B68002B03D16FF029037B61B5
:104C300044E03B695B6A3A689A4213D33869FFF7EC
:104C400088FD02463B6893420CD23B695B6A3A6836
:104C5000D31A3A69926993FBF2F101FB02F29B1AB3
:104C6000002B03D06FF010037B6127E006F06AFE93
:104C70003B691846FFF708FD0346002B0DD13B6941
:104C80001B68BB60BB681B6C3A681A60B86805F0AB
:104C90006CF9002006F03CFE10E0002006F038FE23
:104CA0003B68FB603B69DA6AFB681A603B69FA683B
:104CB000DA623B691B6A5A1C3B691A623B693033F2
:104CC0001846FEF7DBFE7B6918461837BD4680BDE7
:104CD000181400201C140020800D002080B584B022
:104CE00000AF786039600023FB607B68002B02DD39
:104CF0007B68082B02DD6FF0110344E0244B1B6836
:104D0000002B0DD1FFF708FD0346002B08D1214BE6
:104D10001B68002B04D006F008FE0346002B02D0CF
:104D20006FF018032FE07B685A1E1346DB009B1AB6
:104D3000DB00194A1344BB60BB6830331846FEF7EA
:104D400034FEBB689B68002B03D16FF02903FB6026
:104D500013E006F0F7FDBB68184605F0D6F90246E9
:104D60003B685A60002006F0D3FDBB68DA683B68F8
:104D70001A60BB681A6A3B689A60BB683033184691
:104D8000FEF77CFEFB6818461037BD4680BD00BFAD
:104D9000181400201C140020800D002080B483B063
:104DA00000AF78607B687A681A607B687A685A60BE
:104DB00000BF0C37BD465DF8047B704780B483B0FC
:104DC00000AF78607B681B687A689A420CBF012349
:104DD0000023DBB218460C37BD465DF8047B7047F4
:104DE00080B483B000AF786039603B685A687B68F4
:104DF0005A607B683A681A603B685B687A681A6038
:104E00003B687A685A6000BF0C37BD465DF8047B8A
:104E1000704780B485B000AF78607B681B687A68A3
:104E20009A4201D100230BE07B681B68FB60FB68A2
:104E30001A687B681A60FB681B687A685A60FB68AE
:104E400018461437BD465DF8047B704780B400AF48
:104E5000054B1B68002BCCBF01230023DBB2184697
:104E6000BD465DF8047B7047F425002080B483B014
:104E700000AF78607B680F2B01DC10237B607B68C0
:104E8000073323F0070318460C37BD465DF8047B53
:104E9000704780B582B000AF78607B6820331846D9
:104EA000FFF78CFF0346002B01D0002303E07B6853
:104EB0005B6A08335B6818460837BD4680BD80B51D
:104EC00082B000AF0D48FFF769FF0D4B3B600D4B03
:104ED0007B600AE07B6800229A607B68074918467D
:104EE000FFF77EFF7B6834337B607A683B689A42C9
:104EF000F0D3002318460837BD4680BD18100020A7
:104F000018100020480F002080B588B000AF7860EE
:104F100039607B6814337B617B6818333A689A4246
:104F200003D17B681B6BFB6102E03B680833FB61CC
:104F30003B681A687B6828339A4206D17B681B6BF2
:104F40007A6852691344BB6102E03B681B68BB612D
:104F5000BA69FB69D31A3B6139697869FFF700F9CF
:104F6000F8603B685B6823F001031A463B685A60AF
:104F70007B690C33FA689A4226D0FB6808335B6879
:104F80001A463B6993421FD1FB6803F10802FB6993
:104F9000083312681A60FB680833FA6908321A602D
:104FA000FB690833FA6808325A60FB6908331B68EA
:104FB000002B05D0FB6908331B68FA6908325A6078
:104FC000FB6900221A600CE0F968F869FFF708FF36
:104FD000FB69083300221A60FB6908333A695A609A
:104FE00000BF00BF2037BD4680BD80B586B000AF92
:104FF000786039607B6814337B6139687869FFF7C2
:10500000AFF838617B690C333A699A4201D10023C9
:1050100034E03869FFF74AF97B681B6B3A699A42BA
:1050200002D17B68183301E03B69083BFB603B69B8
:1050300008335B681A463B68D31A172B16D93B68AE
:105040003A691344BB60B968F868FFF769F9BB684F
:105050001A687B6828339A4204D1B9687868FFF7E8
:1050600053FF03E0B9687869FFF7C9F8FB685B682C
:1050700043F001031A46FB685A603B69184618372B
:10508000BD4680BD80B586B000AF786039607B6872
:1050900014333B617B681B6B3A689A4202D17B6890
:1050A000183301E03B68083B7B617B695B6803F078
:1050B0000103002B02D16FF010034AE07B695B68AB
:1050C00023F001031A467B695A607B691B685B68A1
:1050D00003F00103002B0AD17B691B6808331846D3
:1050E000FFF7E4F87B691B681846FFF738F97B691E
:1050F0005B685B6803F00103002B15D17B695B687B
:105100007B617B6818337A699A4202D17B681B6B9A
:1051100001E07B690833FB60F868FFF7C7F87B693B
:105120001B681846FFF71BF97B6818337A699A42A7
:1051300005D07B691A687B6828339A4204D1796963
:105140007868FFF7E1FE03E079693869FFF757F8FF
:10515000002318461837BD4680BD80B586B000AF25
:10516000786018E07B681B687B617B691B6C3B6126
:105170007868FFF78EFE02463B69934213DC39697B
:105180007868FFF732FFF8607B695B6CFA681A6039
:10519000786904F0EAFE7B681846FFF70FFE0346C5
:1051A000002BDFD000E000BF00BF1837BD4680BD38
:1051B00080B582B000AF78607B6818331846FFF77F
:1051C000EDFD7B6820331846FFF7E8FD7B6803F1AF
:1051D00018027B68283319461046FFF7A1F87B6850
:1051E000DB6A43F001031A467B68DA627B68183396
:1051F00019467868FFF788FE00BF0837BD4680BDB6
:1052000080B58AB000AF786040F22133FB617B68E3
:105210005A68FB69DB431340002B02D06FF00A038E
:1052200093E07B689B68002B05DD7B689B681A46D2
:10523000484B9A4202D96FF0100386E0464B1B6838
:10524000002B0DD1FFF702FE0346002B08D1434B84
:105250001B68002B04D006F068FB0346002B02D02D
:105260006FF0180371E07B689B681846FFF7FEFD3E
:10527000B8617B685B6803F02003002B0BD07B6870
:105280009B68BA699A4202D06FF010035DE07B68B8
:10529000DB687B6209E0B869FFF780F878627B6AB7
:1052A000002B02D16FF020034FE006F04BFB78613A
:1052B0002B48FFF7AEFD38613B69002B03D16FF03F
:1052C00021033B6222E03B69264A9B1A9B10264A37
:1052D00002FB03F30133FB603B691846FFF75EFDF9
:1052E0003B69FA689A607B681A683B69DA607B6898
:1052F0005A683B691A613B69BA695A613B697A6AC3
:105300001A633869FFF754FFFB683B627B69002B27
:105310000BD1124B1A68154B1B689A4205D00E4BE5
:105320001B68002B01D106F045FE786906F0F0FA03
:105330003B6A002B08DA7B685B6803F02003002BD4
:1053400002D1786AFFF7D1F83B6A18462837BD4684
:1053500080BD00BFF8FFFF7F181400201C14002040
:1053600018100020480F0020C54EECC42014002067
:1053700080B588B000AF78600023FB610023BB617B
:1053800000237B617B68002B02DD7B68042B02DD40
:105390006FF0110357E02E4B1B68002B0DD1FFF768
:1053A00055FD0346002B08D12A4B1B68002B04D067
:1053B00006F0BBFA0346002B02D06FF0180342E060
:1053C0007B68013B342202FB03F3234A13443B6115
:1053D00006F0B8FAF8603B699B68002B03D16FF0C8
:1053E00029037B6111E03B691B6BFB613B691B6916
:1053F000BB613B69184604F06DFE3B6917491846CE
:10540000FFF7EEFC3B6900229A60FB68002B0BD192
:10541000104B1A68124B1B689A4205D00C4B1B6844
:10542000002B01D106F0C6FDF86806F071FA7B6921
:10543000002B07D1BB6903F02003002B02D1F869D0
:10544000FFF753F87B6918462037BD4680BD00BF83
:10545000181400201C140020480F002018100020F1
:105460002014002080B584B000AF786039607B687C
:105470001B6B013B342202FB03F3084A1344FB601D
:105480003B68002B03DB7968F86804F087FEF86856
:10549000FFF763FE00BF1037BD4680BD480F0020F8
:1054A00080B582B000AF78604FF0FF317868FFF7C9
:1054B000D9FF00BF0837BD4680BD80B588B000AFBA
:1054C000F860B9607A603B600023FB6100233B61B8
:1054D000FB68002B02DDFB68042B02DD6FF011037B
:1054E0008CE0BB68002B03DDBB68464A934202D9BF
:1054F0006FF0100382E03B68B3F1FF3F02DA6FF018
:1055000010037BE0404B1B68002B0DD1FFF79EFC86
:105510000346002B08D13D4B1B68002B04D006F03E
:1055200004FA0346002B02D06FF0180366E0FB6814
:10553000013B342202FB03F3354A1344BB61B868D4
:10554000FFF794FCB86006F0FDF97861BB699B68D1
:10555000002B03D16FF029033B613CE0BB695B6921
:10556000BA689A4203DD6FF010033B6133E0274BCA
:105570001B681946B86904F023FE0246234B1B68DA
:105580009A420BD1B968B869FFF72FFDF861FB6942
:10559000002B03D07B68FA691A601CE0BB691B69A9
:1055A00003F00103002B01D01A4A00E01A4A174BFE
:1055B0001B68DA62154B1B6807F11002DA63134BA4
:1055C0001B68BA681A64114B1B687A685A64396898
:1055D000B86904F0ADFD7B69002B0BD10B4B1A6849
:1055E0000E4B1B689A4205D0074B1B68002B01D15C
:1055F00006F0E0FC786906F08BF93B691846203725
:10560000BD4680BDF8FFFF7F181400201C14002049
:10561000480F00209CC6000090C600002014002007
:1056200080B586B000AF7860396000237B617B680D
:10563000002B02DD7B68042B02DD6FF0110358E0C4
:105640002E4B1B68002B0DD1FFF700FC0346002BEF
:1056500008D12B4B1B68002B04D006F066F90346DB
:10566000002B02D06FF0180343E07B68013B34222B
:1056700002FB03F3234A13443B6106F063F9F8602D
:105680003B699B68002B03D16FF029037B611DE010
:105690003B691B6B3A689A4207D33B691B6B3A69BB
:1056A000526913443A689A4203D96FF010037B6140
:1056B0000CE039683869FFF7E5FC78617B69002BFD
:1056C00003DB3869FFF749FD00E000BFFB68002BF2
:1056D0000BD10B4B1A680C4B1B689A4205D0074B39
:1056E0001B68002B01D106F065FCF86806F010F984
:1056F0007B6918461837BD4680BD00BF18140020CE
:105700001C140020480F00202014002080B58AB00F
:1057100000AF786039600023BB617B68002B02DD3D
:105720007B68042B02DD6FF0110373E03B4B1B68B9
:10573000002B0DD1FFF78AFB0346002B08D1384B15
:105740001B68002B04D006F0F0F80346002B02D0B3
:105750006FF018035EE07B68013B342202FB03F329
:10576000304A13447B6106F0EDF838617B699B6831
:10577000002B03D16FF02903BB6138E07B69DA6845
:105780003B681A607B69184604F0BFFC02463B6820
:105790005A600023FB617B691B6A7B6219E07B6AAC
:1057A00008335B68FB60FA69FB681344FB617B6A42
:1057B00008331B683B6206E0FA69FB681344FB612F
:1057C0003B6A1B683B623B6A002BF5D17B6A1B6816
:1057D0007B627B6920337A6A9A42E0D13B68FA693E
:1057E0009A607869FFF755FB02463B68DA603B69CF
:1057F000002B0BD10A4B1A680B4B1B689A4205D041
:10580000064B1B68002B01D106F0D4FB386906F06B
:105810007FF8BB6918462837BD4680BD18140020A4
:105820001C140020480F00202014002080B483B0F6
:1058300000AF78607B687A681A607B687A685A6023
:1058400000BF0C37BD465DF8047B704780B483B061
:1058500000AF78607B681B687A689A420CBF0123AE
:105860000023DBB218460C37BD465DF8047B704759
:1058700080B483B000AF786039603B685A687B6859
:105880005A607B683A681A603B685B687A681A609D
:105890003B687A685A6000BF0C37BD465DF8047BF0
:1058A000704780B485B000AF78607B681B687A6809
:1058B0009A4201D100230BE07B681B68FB60FB6808
:1058C0001A687B681A60FB681B687A685A60FB6814
:1058D00018461437BD465DF8047B704780B400AFAE
:1058E000054B1B68002BCCBF01230023DBB21846FD
:1058F000BD465DF8047B7047F425002080B483B07A
:1059000000AF786039603B6804337A68526A93422A
:1059100094BF01230023DBB218460C37BD465DF867
:10592000047B704780B483B000AF78607B685A6AAC
:105930007B68DB699A420CBF01230023DBB2184667
:105940000C37BD465DF8047B704780B582B000AF70
:105950000D48FFF76BFF0D4B3B600D4B7B600AE082
:105960007B6800229A607B6807491846FFF780FF32
:105970007B6834337B607A683B689A42F0D30023BB
:1059800018460837BD4680BDC0110020C011002058
:105990002010002080B588B000AFF860B9607A6050
:1059A000FB68DB6AFB61FB681B6BBB61FB685B6AC6
:1059B0001A467B68033323F00303D31A043B1A46C9
:1059C000FB685A62FB69BA6913447A681A60FB691A
:1059D0000433FB61FB68DB69FA699A4201DB00234F
:1059E000FB61FB68DA69FB69D31A7B617A697B68C2
:1059F0009A4211DAFB69BA6913447A69B9681846A0
:105A0000FBF76FFA7B69BA681344BB607A687B69FD
:105A1000D31A7B600023FB61FB69BA6913447A687F
:105A2000B9681846FBF75DFA7B68033323F003037C
:105A3000FA691344FB61FB68DB69FA699A4201DB8E
:105A40000023FB61FB68FA69DA6200BF2037BD46BC
:105A500080BD80B584B000AF786016E07B681B68BD
:105A6000FB60FB685B6CBB60B9687868FFF746FF5A
:105A70000346002B11D0FB681B6CBA681946786886
:105A8000FFF788FFF86804F070FA7B681846FFF7A4
:105A9000DDFE0346002BE1D000E000BF00BF103761
:105AA000BD4680BD80B58AB000AF78602123FB6120
:105AB0007B685A68FB69DB431340002B02D06FF010
:105AC0000A0398E07B689B68002B02DA6FF01003F2
:105AD00091E07B68DB68002B02DC6FF010038AE04A
